{
  "abi": [
    {
      "type": "function",
      "name": "cancelL1ToL2Message",
      "inputs": [
        {
          "name": "toAddress",
          "type": "uint256",
          "internalType": "uint256"
        },
        {
          "name": "selector",
          "type": "uint256",
          "internalType": "uint256"
        },
        {
          "name": "payload",
          "type": "uint256[]",
          "internalType": "uint256[]"
        },
        {
          "name": "nonce",
          "type": "uint256",
          "internalType": "uint256"
        }
      ],
      "outputs": [
        {
          "name": "",
          "type": "bytes32",
          "internalType": "bytes32"
        }
      ],
      "stateMutability": "nonpayable"
    },
    {
      "type": "function",
      "name": "configHash",
      "inputs": [],
      "outputs": [
        {
          "name": "",
          "type": "uint256",
          "internalType": "uint256"
        }
      ],
      "stateMutability": "view"
    },
    {
      "type": "function",
      "name": "consumeMessageFromL2",
      "inputs": [
        {
          "name": "fromAddress",
          "type": "uint256",
          "internalType": "uint256"
        },
        {
          "name": "payload",
          "type": "uint256[]",
          "internalType": "uint256[]"
        }
      ],
      "outputs": [
        {
          "name": "",
          "type": "bytes32",
          "internalType": "bytes32"
        }
      ],
      "stateMutability": "nonpayable"
    },
    {
      "type": "function",
      "name": "finalize",
      "inputs": [],
      "outputs": [],
      "stateMutability": "nonpayable"
    },
    {
      "type": "function",
      "name": "getMaxL1MsgFee",
      "inputs": [],
      "outputs": [
        {
          "name": "",
          "type": "uint256",
          "internalType": "uint256"
        }
      ],
      "stateMutability": "pure"
    },
    {
      "type": "function",
      "name": "identify",
      "inputs": [],
      "outputs": [
        {
          "name": "",
          "type": "string",
          "internalType": "string"
        }
      ],
      "stateMutability": "pure"
    },
    {
      "type": "function",
      "name": "initializeContractState",
      "inputs": [
        {
          "name": "data",
          "type": "bytes",
          "internalType": "bytes"
        }
      ],
      "outputs": [],
      "stateMutability": "nonpayable"
    },
    {
      "type": "function",
      "name": "isFinalized",
      "inputs": [],
      "outputs": [
        {
          "name": "",
          "type": "bool",
          "internalType": "bool"
        }
      ],
      "stateMutability": "view"
    },
    {
      "type": "function",
      "name": "isOperator",
      "inputs": [
        {
          "name": "user",
          "type": "address",
          "internalType": "address"
        }
      ],
      "outputs": [
        {
          "name": "",
          "type": "bool",
          "internalType": "bool"
        }
      ],
      "stateMutability": "view"
    },
    {
      "type": "function",
      "name": "l1ToL2MessageCancellations",
      "inputs": [
        {
          "name": "msgHash",
          "type": "bytes32",
          "internalType": "bytes32"
        }
      ],
      "outputs": [
        {
          "name": "",
          "type": "uint256",
          "internalType": "uint256"
        }
      ],
      "stateMutability": "view"
    },
    {
      "type": "function",
      "name": "l1ToL2MessageNonce",
      "inputs": [],
      "outputs": [
        {
          "name": "",
          "type": "uint256",
          "internalType": "uint256"
        }
      ],
      "stateMutability": "view"
    },
    {
      "type": "function",
      "name": "l1ToL2Messages",
      "inputs": [
        {
          "name": "msgHash",
          "type": "bytes32",
          "internalType": "bytes32"
        }
      ],
      "outputs": [
        {
          "name": "",
          "type": "uint256",
          "internalType": "uint256"
        }
      ],
      "stateMutability": "view"
    },
    {
      "type": "function",
      "name": "l2ToL1Messages",
      "inputs": [
        {
          "name": "msgHash",
          "type": "bytes32",
          "internalType": "bytes32"
        }
      ],
      "outputs": [
        {
          "name": "",
          "type": "uint256",
          "internalType": "uint256"
        }
      ],
      "stateMutability": "view"
    },
    {
      "type": "function",
      "name": "messageCancellationDelay",
      "inputs": [],
      "outputs": [
        {
          "name": "",
          "type": "uint256",
          "internalType": "uint256"
        }
      ],
      "stateMutability": "view"
    },
    {
      "type": "function",
      "name": "programHash",
      "inputs": [],
      "outputs": [
        {
          "name": "",
          "type": "uint256",
          "internalType": "uint256"
        }
      ],
      "stateMutability": "view"
    },
    {
      "type": "function",
      "name": "registerOperator",
      "inputs": [
        {
          "name": "newOperator",
          "type": "address",
          "internalType": "address"
        }
      ],
      "outputs": [],
      "stateMutability": "nonpayable"
    },
    {
      "type": "function",
      "name": "sendMessageToL2",
      "inputs": [
        {
          "name": "toAddress",
          "type": "uint256",
          "internalType": "uint256"
        },
        {
          "name": "selector",
          "type": "uint256",
          "internalType": "uint256"
        },
        {
          "name": "payload",
          "type": "uint256[]",
          "internalType": "uint256[]"
        }
      ],
      "outputs": [
        {
          "name": "",
          "type": "bytes32",
          "internalType": "bytes32"
        },
        {
          "name": "",
          "type": "uint256",
          "internalType": "uint256"
        }
      ],
      "stateMutability": "payable"
    },
    {
      "type": "function",
      "name": "setConfigHash",
      "inputs": [
        {
          "name": "newConfigHash",
          "type": "uint256",
          "internalType": "uint256"
        }
      ],
      "outputs": [],
      "stateMutability": "nonpayable"
    },
    {
      "type": "function",
      "name": "setMessageCancellationDelay",
      "inputs": [
        {
          "name": "delayInSeconds",
          "type": "uint256",
          "internalType": "uint256"
        }
      ],
      "outputs": [],
      "stateMutability": "nonpayable"
    },
    {
      "type": "function",
      "name": "setProgramHash",
      "inputs": [
        {
          "name": "newProgramHash",
          "type": "uint256",
          "internalType": "uint256"
        }
      ],
      "outputs": [],
      "stateMutability": "nonpayable"
    },
    {
      "type": "function",
      "name": "starknetAcceptGovernance",
      "inputs": [],
      "outputs": [],
      "stateMutability": "nonpayable"
    },
    {
      "type": "function",
      "name": "starknetCancelNomination",
      "inputs": [],
      "outputs": [],
      "stateMutability": "nonpayable"
    },
    {
      "type": "function",
      "name": "starknetIsGovernor",
      "inputs": [
        {
          "name": "user",
          "type": "address",
          "internalType": "address"
        }
      ],
      "outputs": [
        {
          "name": "",
          "type": "bool",
          "internalType": "bool"
        }
      ],
      "stateMutability": "view"
    },
    {
      "type": "function",
      "name": "starknetNominateNewGovernor",
      "inputs": [
        {
          "name": "newGovernor",
          "type": "address",
          "internalType": "address"
        }
      ],
      "outputs": [],
      "stateMutability": "nonpayable"
    },
    {
      "type": "function",
      "name": "starknetRemoveGovernor",
      "inputs": [
        {
          "name": "governorForRemoval",
          "type": "address",
          "internalType": "address"
        }
      ],
      "outputs": [],
      "stateMutability": "nonpayable"
    },
    {
      "type": "function",
      "name": "startL1ToL2MessageCancellation",
      "inputs": [
        {
          "name": "toAddress",
          "type": "uint256",
          "internalType": "uint256"
        },
        {
          "name": "selector",
          "type": "uint256",
          "internalType": "uint256"
        },
        {
          "name": "payload",
          "type": "uint256[]",
          "internalType": "uint256[]"
        },
        {
          "name": "nonce",
          "type": "uint256",
          "internalType": "uint256"
        }
      ],
      "outputs": [
        {
          "name": "",
          "type": "bytes32",
          "internalType": "bytes32"
        }
      ],
      "stateMutability": "nonpayable"
    },
    {
      "type": "function",
      "name": "stateBlockHash",
      "inputs": [],
      "outputs": [
        {
          "name": "",
          "type": "uint256",
          "internalType": "uint256"
        }
      ],
      "stateMutability": "view"
    },
    {
      "type": "function",
      "name": "stateBlockNumber",
      "inputs": [],
      "outputs": [
        {
          "name": "",
          "type": "int256",
          "internalType": "int256"
        }
      ],
      "stateMutability": "view"
    },
    {
      "type": "function",
      "name": "stateRoot",
      "inputs": [],
      "outputs": [
        {
          "name": "",
          "type": "uint256",
          "internalType": "uint256"
        }
      ],
      "stateMutability": "view"
    },
    {
      "type": "function",
      "name": "unregisterOperator",
      "inputs": [
        {
          "name": "removedOperator",
          "type": "address",
          "internalType": "address"
        }
      ],
      "outputs": [],
      "stateMutability": "nonpayable"
    },
    {
      "type": "function",
      "name": "updateState",
      "inputs": [
        {
          "name": "programOutput",
          "type": "uint256[]",
          "internalType": "uint256[]"
        },
        {
          "name": "onchainDataHash",
          "type": "uint256",
          "internalType": "uint256"
        },
        {
          "name": "onchainDataSize",
          "type": "uint256",
          "internalType": "uint256"
        }
      ],
      "outputs": [],
      "stateMutability": "nonpayable"
    },
    {
      "type": "function",
      "name": "updateStateKzgDA",
      "inputs": [
        {
          "name": "programOutput",
          "type": "uint256[]",
          "internalType": "uint256[]"
        },
        {
          "name": "kzgProof",
          "type": "bytes",
          "internalType": "bytes"
        }
      ],
      "outputs": [],
      "stateMutability": "nonpayable"
    },
    {
      "type": "event",
      "name": "ConfigHashChanged",
      "inputs": [
        {
          "name": "changedBy",
          "type": "address",
          "indexed": true,
          "internalType": "address"
        },
        {
          "name": "oldConfigHash",
          "type": "uint256",
          "indexed": false,
          "internalType": "uint256"
        },
        {
          "name": "newConfigHash",
          "type": "uint256",
          "indexed": false,
          "internalType": "uint256"
        }
      ],
      "anonymous": false
    },
    {
      "type": "event",
      "name": "ConsumedMessageToL1",
      "inputs": [
        {
          "name": "fromAddress",
          "type": "uint256",
          "indexed": true,
          "internalType": "uint256"
        },
        {
          "name": "toAddress",
          "type": "address",
          "indexed": true,
          "internalType": "address"
        },
        {
          "name": "payload",
          "type": "uint256[]",
          "indexed": false,
          "internalType": "uint256[]"
        }
      ],
      "anonymous": false
    },
    {
      "type": "event",
      "name": "ConsumedMessageToL2",
      "inputs": [
        {
          "name": "fromAddress",
          "type": "address",
          "indexed": true,
          "internalType": "address"
        },
        {
          "name": "toAddress",
          "type": "uint256",
          "indexed": true,
          "internalType": "uint256"
        },
        {
          "name": "selector",
          "type": "uint256",
          "indexed": true,
          "internalType": "uint256"
        },
        {
          "name": "payload",
          "type": "uint256[]",
          "indexed": false,
          "internalType": "uint256[]"
        },
        {
          "name": "nonce",
          "type": "uint256",
          "indexed": false,
          "internalType": "uint256"
        }
      ],
      "anonymous": false
    },
    {
      "type": "event",
      "name": "Finalized",
      "inputs": [],
      "anonymous": false
    },
    {
      "type": "event",
      "name": "LogMessageToL1",
      "inputs": [
        {
          "name": "fromAddress",
          "type": "uint256",
          "indexed": true,
          "internalType": "uint256"
        },
        {
          "name": "toAddress",
          "type": "address",
          "indexed": true,
          "internalType": "address"
        },
        {
          "name": "payload",
          "type": "uint256[]",
          "indexed": false,
          "internalType": "uint256[]"
        }
      ],
      "anonymous": false
    },
    {
      "type": "event",
      "name": "LogMessageToL2",
      "inputs": [
        {
          "name": "fromAddress",
          "type": "address",
          "indexed": true,
          "internalType": "address"
        },
        {
          "name": "toAddress",
          "type": "uint256",
          "indexed": true,
          "internalType": "uint256"
        },
        {
          "name": "selector",
          "type": "uint256",
          "indexed": true,
          "internalType": "uint256"
        },
        {
          "name": "payload",
          "type": "uint256[]",
          "indexed": false,
          "internalType": "uint256[]"
        },
        {
          "name": "nonce",
          "type": "uint256",
          "indexed": false,
          "internalType": "uint256"
        },
        {
          "name": "fee",
          "type": "uint256",
          "indexed": false,
          "internalType": "uint256"
        }
      ],
      "anonymous": false
    },
    {
      "type": "event",
      "name": "LogNewGovernorAccepted",
      "inputs": [
        {
          "name": "acceptedGovernor",
          "type": "address",
          "indexed": false,
          "internalType": "address"
        }
      ],
      "anonymous": false
    },
    {
      "type": "event",
      "name": "LogNominatedGovernor",
      "inputs": [
        {
          "name": "nominatedGovernor",
          "type": "address",
          "indexed": false,
          "internalType": "address"
        }
      ],
      "anonymous": false
    },
    {
      "type": "event",
      "name": "LogNominationCancelled",
      "inputs": [],
      "anonymous": false
    },
    {
      "type": "event",
      "name": "LogOperatorAdded",
      "inputs": [
        {
          "name": "operator",
          "type": "address",
          "indexed": false,
          "internalType": "address"
        }
      ],
      "anonymous": false
    },
    {
      "type": "event",
      "name": "LogOperatorRemoved",
      "inputs": [
        {
          "name": "operator",
          "type": "address",
          "indexed": false,
          "internalType": "address"
        }
      ],
      "anonymous": false
    },
    {
      "type": "event",
      "name": "LogRemovedGovernor",
      "inputs": [
        {
          "name": "removedGovernor",
          "type": "address",
          "indexed": false,
          "internalType": "address"
        }
      ],
      "anonymous": false
    },
    {
      "type": "event",
      "name": "LogStateTransitionFact",
      "inputs": [
        {
          "name": "stateTransitionFact",
          "type": "bytes32",
          "indexed": false,
          "internalType": "bytes32"
        }
      ],
      "anonymous": false
    },
    {
      "type": "event",
      "name": "LogStateUpdate",
      "inputs": [
        {
          "name": "globalRoot",
          "type": "uint256",
          "indexed": false,
          "internalType": "uint256"
        },
        {
          "name": "blockNumber",
          "type": "int256",
          "indexed": false,
          "internalType": "int256"
        },
        {
          "name": "blockHash",
          "type": "uint256",
          "indexed": false,
          "internalType": "uint256"
        }
      ],
      "anonymous": false
    },
    {
      "type": "event",
      "name": "MessageToL2Canceled",
      "inputs": [
        {
          "name": "fromAddress",
          "type": "address",
          "indexed": true,
          "internalType": "address"
        },
        {
          "name": "toAddress",
          "type": "uint256",
          "indexed": true,
          "internalType": "uint256"
        },
        {
          "name": "selector",
          "type": "uint256",
          "indexed": true,
          "internalType": "uint256"
        },
        {
          "name": "payload",
          "type": "uint256[]",
          "indexed": false,
          "internalType": "uint256[]"
        },
        {
          "name": "nonce",
          "type": "uint256",
          "indexed": false,
          "internalType": "uint256"
        }
      ],
      "anonymous": false
    },
    {
      "type": "event",
      "name": "MessageToL2CancellationStarted",
      "inputs": [
        {
          "name": "fromAddress",
          "type": "address",
          "indexed": true,
          "internalType": "address"
        },
        {
          "name": "toAddress",
          "type": "uint256",
          "indexed": true,
          "internalType": "uint256"
        },
        {
          "name": "selector",
          "type": "uint256",
          "indexed": true,
          "internalType": "uint256"
        },
        {
          "name": "payload",
          "type": "uint256[]",
          "indexed": false,
          "internalType": "uint256[]"
        },
        {
          "name": "nonce",
          "type": "uint256",
          "indexed": false,
          "internalType": "uint256"
        }
      ],
      "anonymous": false
    },
    {
      "type": "event",
      "name": "ProgramHashChanged",
      "inputs": [
        {
          "name": "changedBy",
          "type": "address",
          "indexed": true,
          "internalType": "address"
        },
        {
          "name": "oldProgramHash",
          "type": "uint256",
          "indexed": false,
          "internalType": "uint256"
        },
        {
          "name": "newProgramHash",
          "type": "uint256",
          "indexed": false,
          "internalType": "uint256"
        }
      ],
      "anonymous": false
    }
  ],
  "bytecode": {
    "object": "0x608060405234801561000f575f80fd5b506131528061001d5f395ff3fe6080604052600436106101db575f3560e01c806384f921cd116100fd578063a46efaf311610092578063e1f1176d11610062578063e1f1176d14610509578063e37fec251461051d578063e87e733214610531578063eeb7286614610550575f80fd5b8063a46efaf31461048d578063a67f82a3146104ac578063b72d42a1146104cb578063c99d397f146104ea575f80fd5b8063946be3ed116100cd578063946be3ed146104275780639588eca21461043b57806396115bc21461044f5780639be446bf1461046e575f80fd5b806384f921cd146103c15780638a9bf090146103e05780638d4e4083146103f457806391a66a2614610408575f80fd5b80634bb278f3116101735780637755264111610143578063775526411461035057806377c7d7a91461036f5780637a98660b1461038e5780638303bd8a146103ad575f80fd5b80634bb278f3146102e457806354eccba4146102f85780636170ff1b146103125780636d70f7ae14610331575f80fd5b80633682a450116101ae5780633682a45014610268578063382d83e3146102895780633d07b3361461029d5780633e3aa6c5146102bc575f80fd5b8063018cccdf146101df57806301a01590146102065780632c9dd5c01461023557806335befa5d14610254575b5f80fd5b3480156101ea575f80fd5b506101f361059b565b6040519081526020015b60405180910390f35b348015610211575f80fd5b50610225610220366004612944565b6105df565b60405190151581526020016101fd565b348015610240575f80fd5b506101f361024f3660046129a7565b6105ef565b34801561025f575f80fd5b506101f3610707565b348015610273575f80fd5b50610287610282366004612944565b610719565b005b348015610294575f80fd5b506101f36107b3565b3480156102a8575f80fd5b506102876102b73660046129ef565b6107c5565b6102cf6102ca366004612a06565b610859565b604080519283526020830191909152016101fd565b3480156102ef575f80fd5b506102876109e9565b348015610303575f80fd5b50670de0b6b3a76400006101f3565b34801561031d575f80fd5b506101f361032c366004612a55565b610a80565b34801561033c575f80fd5b5061022561034b366004612944565b610c93565b34801561035b575f80fd5b5061028761036a366004612aab565b610cbd565b34801561037a575f80fd5b506101f36103893660046129ef565b610e12565b348015610399575f80fd5b506101f36103a8366004612a55565b610e2b565b3480156103b8575f80fd5b506101f3610f04565b3480156103cc575f80fd5b506102876103db366004612944565b610f26565b3480156103eb575f80fd5b506101f3610f2f565b3480156103ff575f80fd5b50610225610f51565b348015610413575f80fd5b50610287610422366004612944565b610f73565b348015610432575f80fd5b50610287610f7c565b348015610446575f80fd5b506101f3610f86565b34801561045a575f80fd5b50610287610469366004612944565b610f95565b348015610479575f80fd5b506101f36104883660046129ef565b611027565b348015610498575f80fd5b506101f36104a73660046129ef565b611030565b3480156104b7575f80fd5b506102876104c6366004612b36565b611039565b3480156104d6575f80fd5b506102876104e5366004612b75565b61109f565b3480156104f5575f80fd5b506102876105043660046129ef565b611196565b348015610514575f80fd5b506101f36111e9565b348015610528575f80fd5b5061028761120b565b34801561053c575f80fd5b5061028761054b3660046129ef565b611213565b34801561055b575f80fd5b50604080518082018252601981527f537461726b576172655f537461726b6e65745f323032345f3800000000000000602082015290516101fd9190612bf2565b5f6105da6040518060400160405280602081526020017f535441524b4e45545f312e305f4d5347494e475f4c31544f4c325f4e4f4e43458152506112a7565b905090565b5f6105e9826112da565b92915050565b6040515f90819061060c9086903390869088908290602001612c4b565b6040516020818303038152906040528051906020012090505f61062d611306565b5f83815260209190915260409020541161068e5760405162461bcd60e51b815260206004820152601a60248201527f494e56414c49445f4d4553534147455f544f5f434f4e53554d4500000000000060448201526064015b60405180910390fd5b336001600160a01b0316857f7a06c571aa77f34d9706c51e5d8122b5595aebeaa34233bfe866f22befb973b186866040516106ca929190612c99565b60405180910390a360016106dc611306565b5f8381526020019081526020015f205f8282546106f99190612cc8565b909155509095945050505050565b5f610710611328565b60010154905090565b610722336112da565b61073e5760405162461bcd60e51b815260040161068590612cdb565b61074781610c93565b6107b0576001610755611371565b6001600160a01b0383165f8181526020928352604090819020805460ff19169415159490941790935591519182527f50a18c352ee1c02ffe058e15c2eb6e58be387c81e73cc1e17035286e54c19a5791015b60405180910390a15b50565b5f6107bc611328565b60020154905090565b6107cd610f51565b156107ea5760405162461bcd60e51b815260040161068590612d04565b6107f3336112da565b61080f5760405162461bcd60e51b815260040161068590612cdb565b337f393c6beb5756a944b2967f15f31ff671e312e945d7a84fd3bdcfd6b408b2dc796108396111e9565b60408051918252602082018590520160405180910390a26107b081611393565b5f805f34116108b45760405162461bcd60e51b815260206004820152602160248201527f4c315f4d53475f4645455f4d5553545f42455f475245415445525f5448414e5f6044820152600360fc1b6064820152608401610685565b670de0b6b3a764000034111561090c5760405162461bcd60e51b815260206004820152601760248201527f4d41585f4c315f4d53475f4645455f45584345454445440000000000000000006044820152606401610685565b5f61091561059b565b90506109626040518060400160405280602081526020017f535441524b4e45545f312e305f4d5347494e475f4c31544f4c325f4e4f4e434581525082600161095d9190612d27565b6113b1565b8587336001600160a01b03167fdb80dd488acf86d17c747445b0eabb5d57c541d3bd7b6b87af987858e5066b2b888886346040516109a39493929190612d3a565b60405180910390a45f6109b988888888866113e3565b90506109c6346001612d27565b6109ce611423565b5f838152602091909152604090205597909650945050505050565b6109f2336112da565b610a0e5760405162461bcd60e51b815260040161068590612cdb565b610a16610f51565b15610a335760405162461bcd60e51b815260040161068590612d04565b610a566040518060600160405280603181526020016130ec6031913960016113b1565b6040517f6823b073d48d6e3a7d385eeb601452d680e74bb46afe3255a7d778f3a9b17681905f90a1565b5f8486336001600160a01b03167f8abd2ec2e0a10c82f5b60ea00455fa96c41fd144f225fcc52b8d83d94f803ed8878787604051610ac093929190612d60565b60405180910390a45f610ad687878787876113e3565b90505f610ae1611423565b5f83815260209190915260408120549150819003610b385760405162461bcd60e51b81526020600482015260146024820152731393d7d35154d4d051d157d513d7d0d05390d15360621b6044820152606401610685565b5f610b41611445565b5f84815260209190915260408120549150819003610bac5760405162461bcd60e51b815260206004820152602260248201527f4d4553534147455f43414e43454c4c4154494f4e5f4e4f545f52455155455354604482015261115160f21b6064820152608401610685565b5f610bb5610f04565b610bbf9083612d27565b905081811015610c115760405162461bcd60e51b815260206004820152601c60248201527f43414e43454c5f414c4c4f5745445f54494d455f4f564552464c4f57000000006044820152606401610685565b80421015610c6d5760405162461bcd60e51b8152602060048201526024808201527f4d4553534147455f43414e43454c4c4154494f4e5f4e4f545f414c4c4f57454460448201526317d6515560e21b6064820152608401610685565b5f610c76611423565b5f8681526020919091526040902055509198975050505050505050565b5f610c9c611371565b6001600160a01b039092165f90815260209290925250604090205460ff1690565b5f610cc6611328565b60010154905060068411610d185760405162461bcd60e51b815260206004820152601960248201527814d5105492d3915517d3d55514155517d513d3d7d4d213d495603a1b6044820152606401610685565b84846005818110610d2b57610d2b612d83565b905060200201355f14610d795760405162461bcd60e51b8152602060048201526016602482015275554e45585045435445445f4b5a475f44415f464c414760501b6044820152606401610685565b5f610d998686604051806040016040528088815260200187815250611467565b9050610da68686836114dc565b610db1826001612d97565b610db9611328565b6001015414610e0a5760405162461bcd60e51b815260206004820152601a60248201527f494e56414c49445f46494e414c5f424c4f434b5f4e554d4245520000000000006044820152606401610685565b505050505050565b5f610e1b611423565b5f92835260205250604090205490565b5f8486336001600160a01b03167f2e00dccd686fd6823ec7dc3e125582aa82881b6ff5f6b5a73856e1ea8338a3be878787604051610e6b93929190612d60565b60405180910390a45f610e8187878787876113e3565b90505f610e8c611423565b5f8381526020919091526040902054905080610ee15760405162461bcd60e51b81526020600482015260146024820152731393d7d35154d4d051d157d513d7d0d05390d15360621b6044820152606401610685565b42610eea611445565b5f8481526020919091526040902055509695505050505050565b5f6105da6040518060600160405280602d8152602001613055602d91396112a7565b6107b08161179f565b5f6105da604051806060016040528060238152602001613032602391396112a7565b5f6105da6040518060600160405280603181526020016130ec603191396112a7565b6107b0816118b8565b610f84611a20565b565b5f610f8f611328565b54919050565b610f9e336112da565b610fba5760405162461bcd60e51b815260040161068590612cdb565b610fc381610c93565b156107b0575f610fd1611371565b6001600160a01b0383165f8181526020928352604090819020805460ff19169415159490941790935591519182527fec5f6c3a91a1efb1f9a308bb33c6e9e66bf9090fad0732f127dfdbf516d0625d91016107a7565b5f610e1b611445565b5f610e1b611306565b5f80808061104985870187612dbe565b935093509350935061105a84611aa4565b61106383611ac6565b61108a8161106f611328565b90805182556020810151600183015560400151600290910155565b61109382611393565b610e0a62069780611ae8565b5f6110a8611328565b6001015490506110ba60056006612d27565b84116111045760405162461bcd60e51b815260206004820152601960248201527814d5105492d3915517d3d55514155517d513d3d7d4d213d495603a1b6044820152606401610685565b8484600581811061111757611117612d83565b905060200201356001146111665760405162461bcd60e51b8152602060048201526016602482015275554e45585045435445445f4b5a475f44415f464c414760501b6044820152606401610685565b61118b6111768560068189612e5b565b611184916005915f91612e5b565b8585611b0a565b5f610d998686611f96565b61119e610f51565b156111bb5760405162461bcd60e51b815260040161068590612d04565b6111c4336112da565b6111e05760405162461bcd60e51b815260040161068590612cdb565b6107b081611ae8565b5f6105da604051806060016040528060218152602001613082602191396112a7565b610f84611fc8565b61121b610f51565b156112385760405162461bcd60e51b815260040161068590612d04565b611241336112da565b61125d5760405162461bcd60e51b815260040161068590612cdb565b337f600a61c1b32ac42fb2fe76e8fc7582a98106668fc16dcd85567cd3937363e49b611287610f2f565b60408051918252602082018590520160405180910390a26107b081611aa4565b5f80826040516020016112ba9190612e86565b60408051601f198184030181529190528051602090910120549392505050565b5f806112e4612049565b6001600160a01b039093165f9081526020939093525050604090205460ff1690565b5f6105da6040518060600160405280602381526020016130a360239139612091565b5f8060405180606001604052806027815260200161300b602791396040516020016113539190612e86565b60408051601f19818403018152919052805160209091012092915050565b5f6105da604051806060016040528060288152602001612fb360289139612091565b6107b060405180606001604052806021815260200161308260219139825b5f826040516020016113c39190612e86565b604051602081830303815290604052805190602001209050818155505050565b6040515f9061140290339088908590899088908a908290602001612ea1565b60405160208183030381529060405280519060200120905095945050505050565b5f6105da6040518060600160405280602681526020016130c660269139612091565b5f6105da604051806060016040528060308152602001612fdb60309139612091565b5f82816114748683611f96565b90505f8183865f015187602001518661148d9190612d27565b6040805160208101959095528401929092526060830152608082015260a00160408051601f19818403018152919052805160209091012090506114d1816001612d27565b979650505050505050565b6114e46111e9565b838360048181106114f7576114f7612d83565b90506020020135146115415760405162461bcd60e51b81526020600482015260136024820152720929cac82989288be869e9c8c928ebe9082a69606b1b6044820152606401610685565b5f61154a610f2f565b604080516020810192909252810183905260600160405160208183030381529060405280519060200120905061157e6120c3565b6001600160a01b0316636a938567826040518263ffffffff1660e01b81526004016115ab91815260200190565b602060405180830381865afa1580156115c6573d5f803e3d5ffd5b505050506040513d601f19601f820116820180604052508101906115ea9190612ed8565b6116365760405162461bcd60e51b815260206004820152601960248201527f4e4f5f53544154455f5452414e534954494f4e5f50524f4f46000000000000006044820152606401610685565b6040518281527f9866f8ddfe70bb512b2f2b28b49d4017c43f7ba775f1a20c61c13eea8cdac1119060200160405180910390a161167d8484611676611328565b91906120e5565b5f6116a08585600581811061169457611694612d83565b905060200201356121f7565b90506116c060016116b38684818a612e5b565b6116bb611306565b612214565b6116ca9082612d27565b90506116e45f6116dc8684818a612e5b565b6116bb611423565b6116ee9082612d27565b905083811461173f5760405162461bcd60e51b815260206004820152601860248201527f535441524b4e45545f4f55545055545f544f4f5f4c4f4e4700000000000000006044820152606401610685565b5f611748611328565b805460018201546002830154604080519384526020840192909252908201529091507fd342ddf7a308dec111745b00315c14b7efb2bdae570a6856e088ed0c65a3576c9060600160405180910390a1505050505050565b6117a8336112da565b6117c45760405162461bcd60e51b815260040161068590612cdb565b6001600160a01b03811633036118135760405162461bcd60e51b8152602060048201526014602482015273474f5645524e4f525f53454c465f52454d4f564560601b6044820152606401610685565b5f61181c612049565b9050611827826112da565b6118625760405162461bcd60e51b815260206004820152600c60248201526b2727aa2fa3a7ab22a92727a960a11b6044820152606401610685565b6001600160a01b0382165f8181526020838152604091829020805460ff1916905590519182527fd75f94825e770b8b512be8e74759e252ad00e102e38f50cce2f7c6f868a2959991015b60405180910390a15050565b6118c1336112da565b6118dd5760405162461bcd60e51b815260040161068590612cdb565b5f6118e6612049565b90506001600160a01b03821661192c5760405162461bcd60e51b815260206004820152600b60248201526a4241445f4144445245535360a81b6044820152606401610685565b611935826112da565b156119755760405162461bcd60e51b815260206004820152601060248201526f20a62922a0a22cafa3a7ab22a92727a960811b6044820152606401610685565b60018101546001600160a01b0316156119d05760405162461bcd60e51b815260206004820152601760248201527f4f544845525f43414e4449444154455f50454e44494e470000000000000000006044820152606401610685565b6001810180546001600160a01b0319166001600160a01b0384169081179091556040519081527f6166272c8d3f5f579082f2827532732f97195007983bb5b83ac12c56700b01a6906020016118ac565b5f611a29612049565b60018101549091506001600160a01b03163314611a885760405162461bcd60e51b815260206004820152601760248201527f4f4e4c595f43414e4449444154455f474f5645524e4f520000000000000000006044820152606401610685565b611a91336127cf565b60010180546001600160a01b0319169055565b6107b060405180606001604052806023815260200161303260239139826113b1565b6107b0604051806060016040528060228152602001612f916022913982612875565b6107b06040518060600160405280602d8152602001613055602d9139826113b1565b60058314611b5a5760405162461bcd60e51b815260206004820152601860248201527f494e56414c49445f4b5a475f5345474d454e545f53495a4500000000000000006044820152606401610685565b60308114611ba35760405162461bcd60e51b8152602060048201526016602482015275494e56414c49445f4b5a475f50524f4f465f53495a4560501b6044820152606401610685565b5f8049906001600160f81b03199082901a60f81b16600160f81b14611c0a5760405162461bcd60e51b815260206004820152601c60248201527f554e45585045435445445f424c4f425f484153485f56455253494f4e000000006044820152606401610685565b60605f8087875f818110611c2057611c20612d83565b9050602002013590505f88886001818110611c3d57611c3d612d83565b9050602002013590505f89896003818110611c5a57611c5a612d83565b9050602002013590505f8a8a6004818110611c7757611c77612d83565b9050602002013590506001600160c01b038016841115611cd25760405162461bcd60e51b81526020600482015260166024820152751253959053125117d2d691d7d0d3d35352551351539560521b6044820152606401610685565b6001600160c01b03831115611d225760405162461bcd60e51b81526020600482015260166024820152751253959053125117d2d691d7d0d3d35352551351539560521b6044820152606401610685565b6001600160801b03821115611d6b5760405162461bcd60e51b815260206004820152600f60248201526e494e56414c49445f595f56414c554560881b6044820152606401610685565b6001600160801b03811115611db45760405162461bcd60e51b815260206004820152600f60248201526e494e56414c49445f595f56414c554560881b6044820152606401610685565b6040805167ffffffffffffffff1985831b8116602083015286831b1660388201528151808203603001815260509091019091529550611df782608083901b612d27565b5f1b9450505050505f87876002818110611e1357611e13612d83565b905060200201355f1b90505f80600a6001600160a01b0316868486888c8c604051602001611e4696959493929190612ef7565b60408051601f1981840301815290829052611e6091612e86565b5f60405180830381855afa9150503d805f8114611e98576040519150601f19603f3d011682016040523d82523d5f602084013e611e9d565b606091505b509150915081611eff5760405162461bcd60e51b815260206004820152602760248201527f504f494e545f4556414c554154494f4e5f505245434f4d50494c455f43414c4c60448201526617d1905253115160ca1b6064820152608401610685565b805160208201207fb2157d3a40131b14c4c675335465dffde802f0ce5218ad012284d7f275d1b37c14611f8a5760405162461bcd60e51b815260206004820152602d60248201527f554e45585045435445445f504f494e545f4556414c554154494f4e5f5052454360448201526c13d35412531157d3d555141555609a1b6064820152608401610685565b50505050505050505050565b5f8282604051602001611faa929190612f38565b60405160208183030381529060405280519060200120905092915050565b611fd1336112da565b611fed5760405162461bcd60e51b815260040161068590612cdb565b5f611ff6612049565b60018101549091506001600160a01b0316156107b0576001810180546001600160a01b03191690556040517f7a8dc7dd7fffb43c4807438fa62729225156941e641fd877938f4edade3429f5905f90a150565b5f806040518060400160405280601c81526020017f535441524b4e45545f312e305f474f5645524e414e43455f494e464f000000008152506040516020016113539190612e86565b5f80826040516020016120a49190612e86565b60408051601f1981840301815291905280516020909101209392505050565b5f6105da604051806060016040528060228152602001612f91602291396112a7565b6001836001015f8282546120f99190612d97565b9091555082905081600281811061211257612112612d83565b905060200201358360010154146121625760405162461bcd60e51b815260206004820152601460248201527324a72b20a624a22fa12627a1a5afa72aa6a122a960611b6044820152606401610685565b8181600381811061217557612175612d83565b6020029190910135600285015550365f61218f84846128d1565b9150915061219d82826128fa565b8554146121e45760405162461bcd60e51b81526020600482015260156024820152741253959053125117d41491559253d554d7d493d3d5605a1b6044820152606401610685565b6121ee828261291c565b90945550505050565b5f81600114612206575f612209565b60055b6105e9906006612d27565b5f8084845f81811061222857612228612d83565b905060200201359050634000000081106122845760405162461bcd60e51b815260206004820152601c60248201527f494e56414c49445f4d4553534147455f5345474d454e545f53495a45000000006044820152606401610685565b60015f6122918383612d27565b90505f886122a05760046122a3565b60025b90505f5b828410156126df575f6122ba8386612d27565b90508881106122ff5760405162461bcd60e51b8152602060048201526011602482015270135154d4d051d157d513d3d7d4d213d495607a1b6044820152606401610685565b5f8a8a8381811061231257612312612d83565b905060200201359050634000000081106123675760405162461bcd60e51b81526020600482015260166024820152750929cac82989288bea082b2989e8288be988a9c8ea8960531b6044820152606401610685565b5f81612374846001612d27565b61237e9190612d27565b90508a8111156123d05760405162461bcd60e51b815260206004820152601960248201527f5452554e43415445445f4d4553534147455f5041594c4f4144000000000000006044820152606401610685565b8c156124e0575f8c8c899084926123e993929190612e5b565b6040516020016123fa929190612f38565b6040516020818303038152906040528051906020012090508c8c60018a6124219190612d27565b81811061243057612430612d83565b905060200201356001600160a01b03168d8d5f8b61244e9190612d27565b81811061245d5761245d612d83565b905060200201357f4264ac208b5fde633ccdd42e0f12c3d6d443a4f3779bbf886925b94665b63a228f8f60038d6124949190612d27565b6124a092889290612e5b565b6040516124ae929190612c99565b60405180910390a35f81815260208c9052604081208054600192906124d4908490612d27565b909155506126d5915050565b5f8c8c899084926124f393929190612e5b565b604051602001612504929190612f38565b60408051601f1981840301815291815281516020928301205f818152928e9052912054909150806125775760405162461bcd60e51b815260206004820152601a60248201527f494e56414c49445f4d4553534147455f544f5f434f4e53554d450000000000006044820152606401610685565b612582600182612cc8565b61258c9087612d27565b5f92835260208d90526040832083905595508d90508c6125ad60028b612d27565b8181106125bc576125bc612d83565b9050602002013590505f8d8d60058b6125d59190612d27565b6125e192869290612e5b565b808060200260200160405190810160405280939291908181526020018383602002808284375f81840152601f19601f8201169050808301925050505050505090508d8d60038b6126319190612d27565b81811061264057612640612d83565b905060200201358e8e60018c6126569190612d27565b81811061266557612665612d83565b905060200201358f8f5f8d61267a9190612d27565b81811061268957612689612d83565b905060200201356001600160a01b03167f9592d37825c744e33fa80c469683bbd04d336241bb600b574758efd182abe26a84866040516126ca929190612f44565b60405180910390a450505b95506122a7915050565b82841461272e5760405162461bcd60e51b815260206004820152601c60248201527f494e56414c49445f4d4553534147455f5345474d454e545f53495a45000000006044820152606401610685565b80156127c1576040515f90339083908381818185875af1925050503d805f8114612773576040519150601f19603f3d011682016040523d82523d5f602084013e612778565b606091505b50509050806127bf5760405162461bcd60e51b815260206004820152601360248201527211551217d514905394d1915497d19052531151606a1b6044820152606401610685565b505b509198975050505050505050565b6127d8816112da565b156128185760405162461bcd60e51b815260206004820152601060248201526f20a62922a0a22cafa3a7ab22a92727a960811b6044820152606401610685565b5f612821612049565b6001600160a01b0383165f8181526020838152604091829020805460ff1916600117905590519182529192507fcfb473e6c03f9a29ddaf990e736fa3de5188a0bd85d684f5b6e164ebfbfff5d291016118ac565b5f61287f836112a7565b6001600160a01b0316146128c35760405162461bcd60e51b815260206004820152600b60248201526a1053149150511657d4d15560aa1b6044820152606401610685565b6128cd82826113b1565b5050565b365f8381846128e1826002612d27565b926128ee93929190612e5b565b915091505b9250929050565b5f82825f81811061290d5761290d612d83565b90506020020135905092915050565b5f8282600181811061290d5761290d612d83565b6001600160a01b03811681146107b0575f80fd5b5f60208284031215612954575f80fd5b813561295f81612930565b9392505050565b5f8083601f840112612976575f80fd5b50813567ffffffffffffffff81111561298d575f80fd5b6020830191508360208260051b85010111156128f3575f80fd5b5f805f604084860312156129b9575f80fd5b83359250602084013567ffffffffffffffff8111156129d6575f80fd5b6129e286828701612966565b9497909650939450505050565b5f602082840312156129ff575f80fd5b5035919050565b5f805f8060608587031215612a19575f80fd5b8435935060208501359250604085013567ffffffffffffffff811115612a3d575f80fd5b612a4987828801612966565b95989497509550505050565b5f805f805f60808688031215612a69575f80fd5b8535945060208601359350604086013567ffffffffffffffff811115612a8d575f80fd5b612a9988828901612966565b96999598509660600135949350505050565b5f805f8060608587031215612abe575f80fd5b843567ffffffffffffffff811115612ad4575f80fd5b612ae087828801612966565b90989097506020870135966040013595509350505050565b5f8083601f840112612b08575f80fd5b50813567ffffffffffffffff811115612b1f575f80fd5b6020830191508360208285010111156128f3575f80fd5b5f8060208385031215612b47575f80fd5b823567ffffffffffffffff811115612b5d575f80fd5b612b6985828601612af8565b90969095509350505050565b5f805f8060408587031215612b88575f80fd5b843567ffffffffffffffff80821115612b9f575f80fd5b612bab88838901612966565b90965094506020870135915080821115612bc3575f80fd5b50612a4987828801612af8565b5f5b83811015612bea578181015183820152602001612bd2565b50505f910152565b602081525f8251806020840152612c10816040850160208701612bd0565b601f01601f19169190910160400192915050565b5f6001600160fb1b03831115612c38575f80fd5b8260051b80838637939093019392505050565b8581528460208201528360408201525f6114d1606083018486612c24565b8183525f6001600160fb1b03831115612c80575f80fd5b8260051b80836020870137939093016020019392505050565b602081525f612cac602083018486612c69565b949350505050565b634e487b7160e01b5f52601160045260245ffd5b818103818111156105e9576105e9612cb4565b6020808252600f908201526e4f4e4c595f474f5645524e414e434560881b604082015260600190565b60208082526009908201526811925390531256915160ba1b604082015260600190565b808201808211156105e9576105e9612cb4565b606081525f612d4d606083018688612c69565b6020830194909452506040015292915050565b604081525f612d73604083018587612c69565b9050826020830152949350505050565b634e487b7160e01b5f52603260045260245ffd5b8082018281125f831280158216821582161715612db657612db6612cb4565b505092915050565b5f805f8084860360c0811215612dd2575f80fd5b853594506020860135612de481612930565b9350604086013592506060605f1982011215612dfe575f80fd5b506040516060810181811067ffffffffffffffff82111715612e2e57634e487b7160e01b5f52604160045260245ffd5b8060405250606086013581526080860135602082015260a086013560408201528091505092959194509250565b5f8085851115612e69575f80fd5b83861115612e75575f80fd5b5050600583901b0193919092039150565b5f8251612e97818460208701612bd0565b9190910192915050565b8781528660208201528560408201528460608201528360808201525f612ecb60a083018486612c24565b9998505050505050505050565b5f60208284031215612ee8575f80fd5b8151801515811461295f575f80fd5b8681528560208201528460408201525f8451612f1a816060850160208901612bd0565b8201838560608301375f930160600192835250909695505050505050565b5f612cac828486612c24565b604080825283519082018190525f906020906060840190828701845b82811015612f7c57815184529284019290840190600101612f60565b50505060209390930193909352509291505056fe535441524b4e45545f312e305f494e49545f56455249464945525f41444452455353535441524b4e45545f312e305f524f4c45535f4f50455241544f52535f4d415050494e475f544147535441524b4e45545f312e305f4d5347494e475f4c31544f4c325f43414e43454c4c4154494f4e5f4d41505050494e47535441524b4e45545f312e305f494e49545f535441524b4e45545f53544154455f535452554354535441524b4e45545f312e305f494e49545f50524f4752414d5f484153485f55494e54535441524b4e45545f312e305f4d5347494e475f4c31544f4c325f43414e43454c4c4154494f4e5f44454c4159535441524b4e45545f312e305f535441524b4e45545f434f4e4649475f48415348535441524b4e45545f312e305f4d5347494e475f4c32544f4c315f4d41505050494e47535441524b4e45545f312e305f4d5347494e475f4c31544f4c325f4d41505050494e475f5632535441524b574152455f434f4e5452414354535f474f564552454e45445f46494e414c495a41424c455f312e305f544147a2646970667358221220ff8d354cc00e0c0a05d55054c2a197f389eb52b5c75f907a59a4df7bfeaf42d564736f6c63430008180033",
    "linkReferences": {}
  },
  "methodIdentifiers": {
    "cancelL1ToL2Message(uint256,uint256,uint256[],uint256)": "6170ff1b",
    "configHash()": "e1f1176d",
    "consumeMessageFromL2(uint256,uint256[])": "2c9dd5c0",
    "finalize()": "4bb278f3",
    "getMaxL1MsgFee()": "54eccba4",
    "identify()": "eeb72866",
    "initializeContractState(bytes)": "a67f82a3",
    "isFinalized()": "8d4e4083",
    "isOperator(address)": "6d70f7ae",
    "l1ToL2MessageCancellations(bytes32)": "9be446bf",
    "l1ToL2MessageNonce()": "018cccdf",
    "l1ToL2Messages(bytes32)": "77c7d7a9",
    "l2ToL1Messages(bytes32)": "a46efaf3",
    "messageCancellationDelay()": "8303bd8a",
    "programHash()": "8a9bf090",
    "registerOperator(address)": "3682a450",
    "sendMessageToL2(uint256,uint256,uint256[])": "3e3aa6c5",
    "setConfigHash(uint256)": "3d07b336",
    "setMessageCancellationDelay(uint256)": "c99d397f",
    "setProgramHash(uint256)": "e87e7332",
    "starknetAcceptGovernance()": "946be3ed",
    "starknetCancelNomination()": "e37fec25",
    "starknetIsGovernor(address)": "01a01590",
    "starknetNominateNewGovernor(address)": "91a66a26",
    "starknetRemoveGovernor(address)": "84f921cd",
    "startL1ToL2MessageCancellation(uint256,uint256,uint256[],uint256)": "7a98660b",
    "stateBlockHash()": "382d83e3",
    "stateBlockNumber()": "35befa5d",
    "stateRoot()": "9588eca2",
    "unregisterOperator(address)": "96115bc2",
    "updateState(uint256[],uint256,uint256)": "77552641",
    "updateStateKzgDA(uint256[],bytes)": "b72d42a1"
  },
  "id": 3
}