{
  "abi": [
    {
      "type": "function",
      "name": "assignLegacyProxyGovernor",
      "inputs": [
        {
          "name": "account",
          "type": "address",
          "internalType": "address"
        }
      ],
      "outputs": [],
      "stateMutability": "nonpayable"
    },
    {
      "type": "function",
      "name": "checkDeploymentStatus",
      "inputs": [
        {
          "name": "token",
          "type": "address",
          "internalType": "address"
        }
      ],
      "outputs": [],
      "stateMutability": "nonpayable"
    },
    {
      "type": "function",
      "name": "deactivate",
      "inputs": [
        {
          "name": "token",
          "type": "address",
          "internalType": "address"
        }
      ],
      "outputs": [],
      "stateMutability": "nonpayable"
    },
    {
      "type": "function",
      "name": "deposit",
      "inputs": [
        {
          "name": "token",
          "type": "address",
          "internalType": "address"
        },
        {
          "name": "amount",
          "type": "uint256",
          "internalType": "uint256"
        },
        {
          "name": "l2Recipient",
          "type": "uint256",
          "internalType": "uint256"
        }
      ],
      "outputs": [],
      "stateMutability": "payable"
    },
    {
      "type": "function",
      "name": "deposit",
      "inputs": [
        {
          "name": "amount",
          "type": "uint256",
          "internalType": "uint256"
        },
        {
          "name": "l2Recipient",
          "type": "uint256",
          "internalType": "uint256"
        }
      ],
      "outputs": [],
      "stateMutability": "payable"
    },
    {
      "type": "function",
      "name": "depositCancelRequest",
      "inputs": [
        {
          "name": "token",
          "type": "address",
          "internalType": "address"
        },
        {
          "name": "amount",
          "type": "uint256",
          "internalType": "uint256"
        },
        {
          "name": "l2Recipient",
          "type": "uint256",
          "internalType": "uint256"
        },
        {
          "name": "nonce",
          "type": "uint256",
          "internalType": "uint256"
        }
      ],
      "outputs": [],
      "stateMutability": "nonpayable"
    },
    {
      "type": "function",
      "name": "depositReclaim",
      "inputs": [
        {
          "name": "token",
          "type": "address",
          "internalType": "address"
        },
        {
          "name": "amount",
          "type": "uint256",
          "internalType": "uint256"
        },
        {
          "name": "l2Recipient",
          "type": "uint256",
          "internalType": "uint256"
        },
        {
          "name": "nonce",
          "type": "uint256",
          "internalType": "uint256"
        }
      ],
      "outputs": [],
      "stateMutability": "nonpayable"
    },
    {
      "type": "function",
      "name": "depositWithMessage",
      "inputs": [
        {
          "name": "token",
          "type": "address",
          "internalType": "address"
        },
        {
          "name": "amount",
          "type": "uint256",
          "internalType": "uint256"
        },
        {
          "name": "l2Recipient",
          "type": "uint256",
          "internalType": "uint256"
        },
        {
          "name": "message",
          "type": "uint256[]",
          "internalType": "uint256[]"
        }
      ],
      "outputs": [],
      "stateMutability": "payable"
    },
    {
      "type": "function",
      "name": "depositWithMessageCancelRequest",
      "inputs": [
        {
          "name": "token",
          "type": "address",
          "internalType": "address"
        },
        {
          "name": "amount",
          "type": "uint256",
          "internalType": "uint256"
        },
        {
          "name": "l2Recipient",
          "type": "uint256",
          "internalType": "uint256"
        },
        {
          "name": "message",
          "type": "uint256[]",
          "internalType": "uint256[]"
        },
        {
          "name": "nonce",
          "type": "uint256",
          "internalType": "uint256"
        }
      ],
      "outputs": [],
      "stateMutability": "nonpayable"
    },
    {
      "type": "function",
      "name": "depositWithMessageReclaim",
      "inputs": [
        {
          "name": "token",
          "type": "address",
          "internalType": "address"
        },
        {
          "name": "amount",
          "type": "uint256",
          "internalType": "uint256"
        },
        {
          "name": "l2Recipient",
          "type": "uint256",
          "internalType": "uint256"
        },
        {
          "name": "message",
          "type": "uint256[]",
          "internalType": "uint256[]"
        },
        {
          "name": "nonce",
          "type": "uint256",
          "internalType": "uint256"
        }
      ],
      "outputs": [],
      "stateMutability": "nonpayable"
    },
    {
      "type": "function",
      "name": "disableWithdrawalLimit",
      "inputs": [
        {
          "name": "token",
          "type": "address",
          "internalType": "address"
        }
      ],
      "outputs": [],
      "stateMutability": "nonpayable"
    },
    {
      "type": "function",
      "name": "enableWithdrawalLimit",
      "inputs": [
        {
          "name": "token",
          "type": "address",
          "internalType": "address"
        }
      ],
      "outputs": [],
      "stateMutability": "nonpayable"
    },
    {
      "type": "function",
      "name": "enrollToken",
      "inputs": [
        {
          "name": "",
          "type": "address",
          "internalType": "address"
        }
      ],
      "outputs": [],
      "stateMutability": "payable"
    },
    {
      "type": "function",
      "name": "estimateDepositFeeWei",
      "inputs": [],
      "outputs": [
        {
          "name": "",
          "type": "uint256",
          "internalType": "uint256"
        }
      ],
      "stateMutability": "pure"
    },
    {
      "type": "function",
      "name": "estimateEnrollmentFeeWei",
      "inputs": [],
      "outputs": [
        {
          "name": "",
          "type": "uint256",
          "internalType": "uint256"
        }
      ],
      "stateMutability": "pure"
    },
    {
      "type": "function",
      "name": "getMaxTotalBalance",
      "inputs": [
        {
          "name": "token",
          "type": "address",
          "internalType": "address"
        }
      ],
      "outputs": [
        {
          "name": "",
          "type": "uint256",
          "internalType": "uint256"
        }
      ],
      "stateMutability": "view"
    },
    {
      "type": "function",
      "name": "getRemainingIntradayAllowance",
      "inputs": [
        {
          "name": "token",
          "type": "address",
          "internalType": "address"
        }
      ],
      "outputs": [
        {
          "name": "",
          "type": "uint256",
          "internalType": "uint256"
        }
      ],
      "stateMutability": "view"
    },
    {
      "type": "function",
      "name": "getStatus",
      "inputs": [
        {
          "name": "token",
          "type": "address",
          "internalType": "address"
        }
      ],
      "outputs": [
        {
          "name": "",
          "type": "uint8",
          "internalType": "enum StarknetTokenStorage.TokenStatus"
        }
      ],
      "stateMutability": "view"
    },
    {
      "type": "function",
      "name": "identify",
      "inputs": [],
      "outputs": [
        {
          "name": "",
          "type": "string",
          "internalType": "string"
        }
      ],
      "stateMutability": "pure"
    },
    {
      "type": "function",
      "name": "initialize",
      "inputs": [
        {
          "name": "data",
          "type": "bytes",
          "internalType": "bytes"
        }
      ],
      "outputs": [],
      "stateMutability": "nonpayable"
    },
    {
      "type": "function",
      "name": "isAppGovernor",
      "inputs": [
        {
          "name": "account",
          "type": "address",
          "internalType": "address"
        }
      ],
      "outputs": [
        {
          "name": "",
          "type": "bool",
          "internalType": "bool"
        }
      ],
      "stateMutability": "view"
    },
    {
      "type": "function",
      "name": "isAppRoleAdmin",
      "inputs": [
        {
          "name": "account",
          "type": "address",
          "internalType": "address"
        }
      ],
      "outputs": [
        {
          "name": "",
          "type": "bool",
          "internalType": "bool"
        }
      ],
      "stateMutability": "view"
    },
    {
      "type": "function",
      "name": "isFrozen",
      "inputs": [],
      "outputs": [
        {
          "name": "",
          "type": "bool",
          "internalType": "bool"
        }
      ],
      "stateMutability": "view"
    },
    {
      "type": "function",
      "name": "isGovernanceAdmin",
      "inputs": [
        {
          "name": "account",
          "type": "address",
          "internalType": "address"
        }
      ],
      "outputs": [
        {
          "name": "",
          "type": "bool",
          "internalType": "bool"
        }
      ],
      "stateMutability": "view"
    },
    {
      "type": "function",
      "name": "isOperator",
      "inputs": [
        {
          "name": "account",
          "type": "address",
          "internalType": "address"
        }
      ],
      "outputs": [
        {
          "name": "",
          "type": "bool",
          "internalType": "bool"
        }
      ],
      "stateMutability": "view"
    },
    {
      "type": "function",
      "name": "isSecurityAdmin",
      "inputs": [
        {
          "name": "account",
          "type": "address",
          "internalType": "address"
        }
      ],
      "outputs": [
        {
          "name": "",
          "type": "bool",
          "internalType": "bool"
        }
      ],
      "stateMutability": "view"
    },
    {
      "type": "function",
      "name": "isSecurityAgent",
      "inputs": [
        {
          "name": "account",
          "type": "address",
          "internalType": "address"
        }
      ],
      "outputs": [
        {
          "name": "",
          "type": "bool",
          "internalType": "bool"
        }
      ],
      "stateMutability": "view"
    },
    {
      "type": "function",
      "name": "isServicingToken",
      "inputs": [
        {
          "name": "token",
          "type": "address",
          "internalType": "address"
        }
      ],
      "outputs": [
        {
          "name": "",
          "type": "bool",
          "internalType": "bool"
        }
      ],
      "stateMutability": "view"
    },
    {
      "type": "function",
      "name": "isTokenAdmin",
      "inputs": [
        {
          "name": "account",
          "type": "address",
          "internalType": "address"
        }
      ],
      "outputs": [
        {
          "name": "",
          "type": "bool",
          "internalType": "bool"
        }
      ],
      "stateMutability": "view"
    },
    {
      "type": "function",
      "name": "isUpgradeGovernor",
      "inputs": [
        {
          "name": "account",
          "type": "address",
          "internalType": "address"
        }
      ],
      "outputs": [
        {
          "name": "",
          "type": "bool",
          "internalType": "bool"
        }
      ],
      "stateMutability": "view"
    },
    {
      "type": "function",
      "name": "legacyDepositCancelRequest",
      "inputs": [
        {
          "name": "amount",
          "type": "uint256",
          "internalType": "uint256"
        },
        {
          "name": "l2Recipient",
          "type": "uint256",
          "internalType": "uint256"
        },
        {
          "name": "nonce",
          "type": "uint256",
          "internalType": "uint256"
        }
      ],
      "outputs": [],
      "stateMutability": "nonpayable"
    },
    {
      "type": "function",
      "name": "legacyDepositReclaim",
      "inputs": [
        {
          "name": "amount",
          "type": "uint256",
          "internalType": "uint256"
        },
        {
          "name": "l2Recipient",
          "type": "uint256",
          "internalType": "uint256"
        },
        {
          "name": "nonce",
          "type": "uint256",
          "internalType": "uint256"
        }
      ],
      "outputs": [],
      "stateMutability": "nonpayable"
    },
    {
      "type": "function",
      "name": "maxDeposit",
      "inputs": [],
      "outputs": [
        {
          "name": "",
          "type": "uint256",
          "internalType": "uint256"
        }
      ],
      "stateMutability": "pure"
    },
    {
      "type": "function",
      "name": "maxTotalBalance",
      "inputs": [],
      "outputs": [
        {
          "name": "",
          "type": "uint256",
          "internalType": "uint256"
        }
      ],
      "stateMutability": "view"
    },
    {
      "type": "function",
      "name": "registerAppGovernor",
      "inputs": [
        {
          "name": "account",
          "type": "address",
          "internalType": "address"
        }
      ],
      "outputs": [],
      "stateMutability": "nonpayable"
    },
    {
      "type": "function",
      "name": "registerAppRoleAdmin",
      "inputs": [
        {
          "name": "account",
          "type": "address",
          "internalType": "address"
        }
      ],
      "outputs": [],
      "stateMutability": "nonpayable"
    },
    {
      "type": "function",
      "name": "registerGovernanceAdmin",
      "inputs": [
        {
          "name": "account",
          "type": "address",
          "internalType": "address"
        }
      ],
      "outputs": [],
      "stateMutability": "nonpayable"
    },
    {
      "type": "function",
      "name": "registerOperator",
      "inputs": [
        {
          "name": "account",
          "type": "address",
          "internalType": "address"
        }
      ],
      "outputs": [],
      "stateMutability": "nonpayable"
    },
    {
      "type": "function",
      "name": "registerSecurityAdmin",
      "inputs": [
        {
          "name": "account",
          "type": "address",
          "internalType": "address"
        }
      ],
      "outputs": [],
      "stateMutability": "nonpayable"
    },
    {
      "type": "function",
      "name": "registerSecurityAgent",
      "inputs": [
        {
          "name": "account",
          "type": "address",
          "internalType": "address"
        }
      ],
      "outputs": [],
      "stateMutability": "nonpayable"
    },
    {
      "type": "function",
      "name": "registerTokenAdmin",
      "inputs": [
        {
          "name": "account",
          "type": "address",
          "internalType": "address"
        }
      ],
      "outputs": [],
      "stateMutability": "nonpayable"
    },
    {
      "type": "function",
      "name": "registerUpgradeGovernor",
      "inputs": [
        {
          "name": "account",
          "type": "address",
          "internalType": "address"
        }
      ],
      "outputs": [],
      "stateMutability": "nonpayable"
    },
    {
      "type": "function",
      "name": "removeLegacyProxyGovernor",
      "inputs": [
        {
          "name": "account",
          "type": "address",
          "internalType": "address"
        }
      ],
      "outputs": [],
      "stateMutability": "nonpayable"
    },
    {
      "type": "function",
      "name": "renounceRole",
      "inputs": [
        {
          "name": "role",
          "type": "bytes32",
          "internalType": "bytes32"
        },
        {
          "name": "account",
          "type": "address",
          "internalType": "address"
        }
      ],
      "outputs": [],
      "stateMutability": "nonpayable"
    },
    {
      "type": "function",
      "name": "revokeAppGovernor",
      "inputs": [
        {
          "name": "account",
          "type": "address",
          "internalType": "address"
        }
      ],
      "outputs": [],
      "stateMutability": "nonpayable"
    },
    {
      "type": "function",
      "name": "revokeAppRoleAdmin",
      "inputs": [
        {
          "name": "account",
          "type": "address",
          "internalType": "address"
        }
      ],
      "outputs": [],
      "stateMutability": "nonpayable"
    },
    {
      "type": "function",
      "name": "revokeGovernanceAdmin",
      "inputs": [
        {
          "name": "account",
          "type": "address",
          "internalType": "address"
        }
      ],
      "outputs": [],
      "stateMutability": "nonpayable"
    },
    {
      "type": "function",
      "name": "revokeOperator",
      "inputs": [
        {
          "name": "account",
          "type": "address",
          "internalType": "address"
        }
      ],
      "outputs": [],
      "stateMutability": "nonpayable"
    },
    {
      "type": "function",
      "name": "revokeSecurityAdmin",
      "inputs": [
        {
          "name": "account",
          "type": "address",
          "internalType": "address"
        }
      ],
      "outputs": [],
      "stateMutability": "nonpayable"
    },
    {
      "type": "function",
      "name": "revokeSecurityAgent",
      "inputs": [
        {
          "name": "account",
          "type": "address",
          "internalType": "address"
        }
      ],
      "outputs": [],
      "stateMutability": "nonpayable"
    },
    {
      "type": "function",
      "name": "revokeTokenAdmin",
      "inputs": [
        {
          "name": "account",
          "type": "address",
          "internalType": "address"
        }
      ],
      "outputs": [],
      "stateMutability": "nonpayable"
    },
    {
      "type": "function",
      "name": "revokeUpgradeGovernor",
      "inputs": [
        {
          "name": "account",
          "type": "address",
          "internalType": "address"
        }
      ],
      "outputs": [],
      "stateMutability": "nonpayable"
    },
    {
      "type": "function",
      "name": "setL2TokenBridge",
      "inputs": [
        {
          "name": "l2TokenBridge_",
          "type": "uint256",
          "internalType": "uint256"
        }
      ],
      "outputs": [],
      "stateMutability": "nonpayable"
    },
    {
      "type": "function",
      "name": "setMaxTotalBalance",
      "inputs": [
        {
          "name": "token",
          "type": "address",
          "internalType": "address"
        },
        {
          "name": "maxTotalBalance_",
          "type": "uint256",
          "internalType": "uint256"
        }
      ],
      "outputs": [],
      "stateMutability": "nonpayable"
    },
    {
      "type": "function",
      "name": "withdraw",
      "inputs": [
        {
          "name": "amount",
          "type": "uint256",
          "internalType": "uint256"
        },
        {
          "name": "recipient",
          "type": "address",
          "internalType": "address"
        }
      ],
      "outputs": [],
      "stateMutability": "nonpayable"
    },
    {
      "type": "function",
      "name": "withdraw",
      "inputs": [
        {
          "name": "amount",
          "type": "uint256",
          "internalType": "uint256"
        }
      ],
      "outputs": [],
      "stateMutability": "nonpayable"
    },
    {
      "type": "function",
      "name": "withdraw",
      "inputs": [
        {
          "name": "token",
          "type": "address",
          "internalType": "address"
        },
        {
          "name": "amount",
          "type": "uint256",
          "internalType": "uint256"
        },
        {
          "name": "recipient",
          "type": "address",
          "internalType": "address"
        }
      ],
      "outputs": [],
      "stateMutability": "nonpayable"
    },
    {
      "type": "function",
      "name": "withdraw",
      "inputs": [
        {
          "name": "token",
          "type": "address",
          "internalType": "address"
        },
        {
          "name": "amount",
          "type": "uint256",
          "internalType": "uint256"
        }
      ],
      "outputs": [],
      "stateMutability": "nonpayable"
    },
    {
      "type": "event",
      "name": "Deposit",
      "inputs": [
        {
          "name": "sender",
          "type": "address",
          "indexed": true,
          "internalType": "address"
        },
        {
          "name": "token",
          "type": "address",
          "indexed": true,
          "internalType": "address"
        },
        {
          "name": "amount",
          "type": "uint256",
          "indexed": false,
          "internalType": "uint256"
        },
        {
          "name": "l2Recipient",
          "type": "uint256",
          "indexed": true,
          "internalType": "uint256"
        },
        {
          "name": "nonce",
          "type": "uint256",
          "indexed": false,
          "internalType": "uint256"
        },
        {
          "name": "fee",
          "type": "uint256",
          "indexed": false,
          "internalType": "uint256"
        }
      ],
      "anonymous": false
    },
    {
      "type": "event",
      "name": "DepositCancelRequest",
      "inputs": [
        {
          "name": "sender",
          "type": "address",
          "indexed": true,
          "internalType": "address"
        },
        {
          "name": "token",
          "type": "address",
          "indexed": true,
          "internalType": "address"
        },
        {
          "name": "amount",
          "type": "uint256",
          "indexed": false,
          "internalType": "uint256"
        },
        {
          "name": "l2Recipient",
          "type": "uint256",
          "indexed": true,
          "internalType": "uint256"
        },
        {
          "name": "nonce",
          "type": "uint256",
          "indexed": false,
          "internalType": "uint256"
        }
      ],
      "anonymous": false
    },
    {
      "type": "event",
      "name": "DepositReclaimed",
      "inputs": [
        {
          "name": "sender",
          "type": "address",
          "indexed": true,
          "internalType": "address"
        },
        {
          "name": "token",
          "type": "address",
          "indexed": true,
          "internalType": "address"
        },
        {
          "name": "amount",
          "type": "uint256",
          "indexed": false,
          "internalType": "uint256"
        },
        {
          "name": "l2Recipient",
          "type": "uint256",
          "indexed": true,
          "internalType": "uint256"
        },
        {
          "name": "nonce",
          "type": "uint256",
          "indexed": false,
          "internalType": "uint256"
        }
      ],
      "anonymous": false
    },
    {
      "type": "event",
      "name": "DepositWithMessage",
      "inputs": [
        {
          "name": "sender",
          "type": "address",
          "indexed": true,
          "internalType": "address"
        },
        {
          "name": "token",
          "type": "address",
          "indexed": true,
          "internalType": "address"
        },
        {
          "name": "amount",
          "type": "uint256",
          "indexed": false,
          "internalType": "uint256"
        },
        {
          "name": "l2Recipient",
          "type": "uint256",
          "indexed": true,
          "internalType": "uint256"
        },
        {
          "name": "message",
          "type": "uint256[]",
          "indexed": false,
          "internalType": "uint256[]"
        },
        {
          "name": "nonce",
          "type": "uint256",
          "indexed": false,
          "internalType": "uint256"
        },
        {
          "name": "fee",
          "type": "uint256",
          "indexed": false,
          "internalType": "uint256"
        }
      ],
      "anonymous": false
    },
    {
      "type": "event",
      "name": "DepositWithMessageCancelRequest",
      "inputs": [
        {
          "name": "sender",
          "type": "address",
          "indexed": true,
          "internalType": "address"
        },
        {
          "name": "token",
          "type": "address",
          "indexed": true,
          "internalType": "address"
        },
        {
          "name": "amount",
          "type": "uint256",
          "indexed": false,
          "internalType": "uint256"
        },
        {
          "name": "l2Recipient",
          "type": "uint256",
          "indexed": true,
          "internalType": "uint256"
        },
        {
          "name": "message",
          "type": "uint256[]",
          "indexed": false,
          "internalType": "uint256[]"
        },
        {
          "name": "nonce",
          "type": "uint256",
          "indexed": false,
          "internalType": "uint256"
        }
      ],
      "anonymous": false
    },
    {
      "type": "event",
      "name": "DepositWithMessageReclaimed",
      "inputs": [
        {
          "name": "sender",
          "type": "address",
          "indexed": true,
          "internalType": "address"
        },
        {
          "name": "token",
          "type": "address",
          "indexed": true,
          "internalType": "address"
        },
        {
          "name": "amount",
          "type": "uint256",
          "indexed": false,
          "internalType": "uint256"
        },
        {
          "name": "l2Recipient",
          "type": "uint256",
          "indexed": true,
          "internalType": "uint256"
        },
        {
          "name": "message",
          "type": "uint256[]",
          "indexed": false,
          "internalType": "uint256[]"
        },
        {
          "name": "nonce",
          "type": "uint256",
          "indexed": false,
          "internalType": "uint256"
        }
      ],
      "anonymous": false
    },
    {
      "type": "event",
      "name": "LogDeposit",
      "inputs": [
        {
          "name": "sender",
          "type": "address",
          "indexed": true,
          "internalType": "address"
        },
        {
          "name": "amount",
          "type": "uint256",
          "indexed": false,
          "internalType": "uint256"
        },
        {
          "name": "l2Recipient",
          "type": "uint256",
          "indexed": true,
          "internalType": "uint256"
        },
        {
          "name": "nonce",
          "type": "uint256",
          "indexed": false,
          "internalType": "uint256"
        },
        {
          "name": "fee",
          "type": "uint256",
          "indexed": false,
          "internalType": "uint256"
        }
      ],
      "anonymous": false
    },
    {
      "type": "event",
      "name": "LogDepositCancelRequest",
      "inputs": [
        {
          "name": "sender",
          "type": "address",
          "indexed": true,
          "internalType": "address"
        },
        {
          "name": "amount",
          "type": "uint256",
          "indexed": false,
          "internalType": "uint256"
        },
        {
          "name": "l2Recipient",
          "type": "uint256",
          "indexed": true,
          "internalType": "uint256"
        },
        {
          "name": "nonce",
          "type": "uint256",
          "indexed": false,
          "internalType": "uint256"
        }
      ],
      "anonymous": false
    },
    {
      "type": "event",
      "name": "LogDepositReclaimed",
      "inputs": [
        {
          "name": "sender",
          "type": "address",
          "indexed": true,
          "internalType": "address"
        },
        {
          "name": "amount",
          "type": "uint256",
          "indexed": false,
          "internalType": "uint256"
        },
        {
          "name": "l2Recipient",
          "type": "uint256",
          "indexed": true,
          "internalType": "uint256"
        },
        {
          "name": "nonce",
          "type": "uint256",
          "indexed": false,
          "internalType": "uint256"
        }
      ],
      "anonymous": false
    },
    {
      "type": "event",
      "name": "LogNewGovernorAccepted",
      "inputs": [
        {
          "name": "acceptedGovernor",
          "type": "address",
          "indexed": false,
          "internalType": "address"
        }
      ],
      "anonymous": false
    },
    {
      "type": "event",
      "name": "LogRemovedGovernor",
      "inputs": [
        {
          "name": "removedGovernor",
          "type": "address",
          "indexed": false,
          "internalType": "address"
        }
      ],
      "anonymous": false
    },
    {
      "type": "event",
      "name": "RoleAdminChanged",
      "inputs": [
        {
          "name": "role",
          "type": "bytes32",
          "indexed": true,
          "internalType": "bytes32"
        },
        {
          "name": "previousAdminRole",
          "type": "bytes32",
          "indexed": true,
          "internalType": "bytes32"
        },
        {
          "name": "newAdminRole",
          "type": "bytes32",
          "indexed": true,
          "internalType": "bytes32"
        }
      ],
      "anonymous": false
    },
    {
      "type": "event",
      "name": "RoleGranted",
      "inputs": [
        {
          "name": "role",
          "type": "bytes32",
          "indexed": true,
          "internalType": "bytes32"
        },
        {
          "name": "account",
          "type": "address",
          "indexed": true,
          "internalType": "address"
        },
        {
          "name": "sender",
          "type": "address",
          "indexed": true,
          "internalType": "address"
        }
      ],
      "anonymous": false
    },
    {
      "type": "event",
      "name": "RoleRevoked",
      "inputs": [
        {
          "name": "role",
          "type": "bytes32",
          "indexed": true,
          "internalType": "bytes32"
        },
        {
          "name": "account",
          "type": "address",
          "indexed": true,
          "internalType": "address"
        },
        {
          "name": "sender",
          "type": "address",
          "indexed": true,
          "internalType": "address"
        }
      ],
      "anonymous": false
    },
    {
      "type": "event",
      "name": "SetL2TokenBridge",
      "inputs": [
        {
          "name": "value",
          "type": "uint256",
          "indexed": false,
          "internalType": "uint256"
        }
      ],
      "anonymous": false
    },
    {
      "type": "event",
      "name": "SetMaxTotalBalance",
      "inputs": [
        {
          "name": "token",
          "type": "address",
          "indexed": true,
          "internalType": "address"
        },
        {
          "name": "value",
          "type": "uint256",
          "indexed": false,
          "internalType": "uint256"
        }
      ],
      "anonymous": false
    },
    {
      "type": "event",
      "name": "TokenDeactivated",
      "inputs": [
        {
          "name": "token",
          "type": "address",
          "indexed": false,
          "internalType": "address"
        }
      ],
      "anonymous": false
    },
    {
      "type": "event",
      "name": "TokenEnrollmentInitiated",
      "inputs": [
        {
          "name": "token",
          "type": "address",
          "indexed": false,
          "internalType": "address"
        },
        {
          "name": "deploymentMsgHash",
          "type": "bytes32",
          "indexed": false,
          "internalType": "bytes32"
        }
      ],
      "anonymous": false
    },
    {
      "type": "event",
      "name": "Withdrawal",
      "inputs": [
        {
          "name": "recipient",
          "type": "address",
          "indexed": true,
          "internalType": "address"
        },
        {
          "name": "token",
          "type": "address",
          "indexed": true,
          "internalType": "address"
        },
        {
          "name": "amount",
          "type": "uint256",
          "indexed": false,
          "internalType": "uint256"
        }
      ],
      "anonymous": false
    },
    {
      "type": "event",
      "name": "WithdrawalLimitDisabled",
      "inputs": [
        {
          "name": "sender",
          "type": "address",
          "indexed": true,
          "internalType": "address"
        },
        {
          "name": "token",
          "type": "address",
          "indexed": true,
          "internalType": "address"
        }
      ],
      "anonymous": false
    },
    {
      "type": "event",
      "name": "WithdrawalLimitEnabled",
      "inputs": [
        {
          "name": "sender",
          "type": "address",
          "indexed": true,
          "internalType": "address"
        },
        {
          "name": "token",
          "type": "address",
          "indexed": true,
          "internalType": "address"
        }
      ],
      "anonymous": false
    }
  ],
  "bytecode": {
    "object": "0x60e06040524660011461001357600161001a565b64e8d4a510005b64ffffffffff1660805234801561002f575f80fd5b503060a052600160c0819052610043610049565b506104c2565b336100548180610057565b50565b61005f6101a8565b156100f4576001600160a01b0382165f9081527fa5fdb349cc4ffac7e8ce7d3b075149d1bc847367d814e69a9beca89ef02db8b0602052604090205460ff166100ef5760405162461bcd60e51b815260206004820152601960248201527f524f4c45535f414c52454144595f494e495449414c495a45440000000000000060448201526064015b60405180910390fd5b6100fd565b6100fd826101f7565b610105610324565b1561019f576001600160a01b0381165f9081527f2c11a1f9c63817dbb9f0faa966615764d2db5d6e008269e948a99e0b52181c23602052604090205460ff1661019b5760405162461bcd60e51b815260206004820152602260248201527f53454355524954595f524f4c45535f414c52454144595f494e495449414c495a604482015261115160f21b60648201526084016100e6565b5050565b61019b81610370565b5f80516020614f238339815191525f9081525f80516020614f638339815191526020527fa5fdb349cc4ffac7e8ce7d3b075149d1bc847367d814e69a9beca89ef02db8b15481905b1415905090565b61020e5f80516020614f23833981519152826103d1565b6102447ed2ead78c620e94b02d0a996e99298c59ddccfa1d8a0149080ac3a20de060685f80516020614f8383398151915261046c565b6102685f80516020614f838339815191525f80516020614f2383398151915261046c565b61027f5f80516020614f238339815191528061046c565b6102b67f023edb77f7c8cc9e38e8afe78954f703aeeda7fffe014eeb6e56ea84e62f6da75f80516020614f8383398151915261046c565b6102ed7f0128d63adbf6b09002c26caf55c47e2f26635807e3ef1b027218aa74c8d61a3e5f80516020614f8383398151915261046c565b6100547f0251e864ca2a080f55bce5da2452e8cfcafdbc951a3e7fff5023d558452ec2285f80516020614f2383398151915261046c565b5f80516020614f438339815191525f9081525f80516020614f638339815191526020527f2c11a1f9c63817dbb9f0faa966615764d2db5d6e008269e948a99e0b52181c245481906101f0565b6103875f80516020614f438339815191528061046c565b6103be7f037693ba312785932d430dccf0f56ffedd0aa7c0f8b6da2cc4530c2717689b965f80516020614f4383398151915261046c565b6100545f80516020614f43833981519152825b5f8281525f80516020614f63833981519152602090815260408083206001600160a01b038516845290915290205460ff1661019b575f8281525f80516020614f63833981519152602090815260408083206001600160a01b0385168085529252808320805460ff1916600117905551339285917f2f8788117e7eff1d82e926ec794901d17c78024a50270940304540a733656f0d9190a45050565b5f8281525f80516020614f638339815191526020526040808220600101805490849055905190918391839186917fbd79b86ffe0ab8e8776151514217cd7cacd52c909f66475c3af44e129f0b00ff9190a4505050565b60805160a05160c051614a376104ec5f395f610ef601525f6110b101525f61340a0152614a375ff3fe608060405260043610610370575f3560e01c80636ffed68b116101c8578063cb1cccce116100fd578063deec9c5a1161009d578063eeb728661161006d578063eeb72866146109ea578063f3fef3a314610a0b578063fa0f73ba14610a2a578063fad8b32a14610a49575f80fd5b8063deec9c5a1461097a578063e2bbb15814610999578063ed9ef16a146109ac578063ee0e6807146109cb575f80fd5b8063d08fb6cb116100d8578063d08fb6cb146108fe578063d12fc1821461091d578063d2b51eea1461093c578063d9fa70911461095b575f80fd5b8063cb1cccce146108a1578063cdd1f70d146108c0578063cf50fd1c146108df575f80fd5b8063a2bdde3d11610168578063af8bc15e11610143578063af8bc15e1461083c578063b5cd0c3c14610850578063be58b18e1461086f578063c1f5eb3a14610882575f80fd5b8063a2bdde3d146107eb578063a6d1d6c61461080a578063ad8b92b414610829575f80fd5b80637fc2ab3e116101a35780637fc2ab3e1461076f5780638101b64c1461078e5780638e5224ff146107ad5780639463629a146107cc575f80fd5b80636ffed68b14610712578063757bd9ab146107315780637d22dbc714610750575f80fd5b806336568abe116102a95780635a5d1bb91161024957806369328dec1161021957806369328dec146106965780636c04d9d5146106b55780636d70f7ae146106d45780636fc97cbf146106f3575f80fd5b80635a5d1bb9146106265780635a72af89146106455780636083e59a1461066457806362a1437614610677575f80fd5b8063439fab9111610284578063439fab91146105b5578063496ae54c146105d45780634baf43da146105f35780634d8b92a514610612575f80fd5b806336568abe146105585780633682a450146105775780633ea053eb14610596575f80fd5b806319534075116103145780632e1a7d4d116102ef5780632e1a7d4d146104b85780632f951985146104d757806330ccebb5146104f657806333eeb14714610546575f80fd5b8063195340751461045857806323205c521461047a578063284b920e14610499575f80fd5b80630e770f231161034f5780630e770f23146103e85780630efe6a8b1461040757806314af98b31461041a5780631789638314610439575f80fd5b8062f714ce146103745780630b3a2d21146103955780630c6f8664146103b4575b5f80fd5b34801561037f575f80fd5b5061039361038e366004613e84565b610a68565b005b3480156103a0575f80fd5b506103936103af366004613eb2565b610a7e565b3480156103bf575f80fd5b506103d36103ce366004613eb2565b610a98565b60405190151581526020015b60405180910390f35b3480156103f3575f80fd5b50610393610402366004613eb2565b610af7565b610393610415366004613ecd565b610b0e565b348015610425575f80fd5b50610393610434366004613eb2565b610bc6565b348015610444575f80fd5b50610393610453366004613eb2565b610c6c565b348015610463575f80fd5b5061046c610c83565b6040519081526020016103df565b348015610485575f80fd5b50610393610494366004613eff565b610c94565b3480156104a4575f80fd5b506103936104b3366004613eb2565b610d86565b3480156104c3575f80fd5b506103936104d2366004613f37565b610e8b565b3480156104e2575f80fd5b506103936104f1366004613eb2565b610e9d565b348015610501575f80fd5b50610539610510366004613eb2565b6001600160a01b03165f9081525f80516020614958833981519152602052604090205460ff1690565b6040516103df9190613f62565b348015610551575f80fd5b505f6103d3565b348015610563575f80fd5b50610393610572366004613e84565b610edd565b348015610582575f80fd5b50610393610591366004613eb2565b610f6e565b3480156105a1575f80fd5b506103936105b0366004613eb2565b610f85565b3480156105c0575f80fd5b506103936105cf366004613f88565b6110ae565b3480156105df575f80fd5b5061046c6105ee366004613eb2565b61125a565b3480156105fe575f80fd5b5061046c61060d366004613eb2565b61129e565b34801561061d575f80fd5b5061046c6112da565b348015610631575f80fd5b506103d3610640366004613eb2565b6112e3565b348015610650575f80fd5b5061039361065f366004613eb2565b6112fb565b34801561066f575f80fd5b505f1961046c565b348015610682575f80fd5b50610393610691366004613eb2565b61139e565b3480156106a1575f80fd5b506103936106b0366004613ff6565b6113b5565b3480156106c0575f80fd5b506103d36106cf366004613eb2565b61152b565b3480156106df575f80fd5b506103d36106ee366004613eb2565b611543565b3480156106fe575f80fd5b5061039361070d366004613eb2565b61155b565b34801561071d575f80fd5b5061039361072c366004614035565b611572565b34801561073c575f80fd5b506103d361074b366004613eb2565b6116c0565b34801561075b575f80fd5b5061039361076a366004614035565b6116d8565b34801561077a575f80fd5b50610393610789366004613f37565b61182e565b348015610799575f80fd5b506103936107a8366004613eb2565b61190a565b3480156107b8575f80fd5b506103d36107c7366004613eb2565b61194a565b3480156107d7575f80fd5b506103936107e6366004613eb2565b611962565b3480156107f6575f80fd5b506103d3610805366004613eb2565b611979565b348015610815575f80fd5b50610393610824366004613eff565b611991565b610393610837366004613eb2565b611a6e565b348015610847575f80fd5b5061046c611aa4565b34801561085b575f80fd5b5061039361086a3660046140a6565b611aad565b61039361087d366004614113565b611bdf565b34801561088d575f80fd5b5061039361089c366004613eb2565b611cec565b3480156108ac575f80fd5b506103d36108bb366004613eb2565b611de6565b3480156108cb575f80fd5b506103936108da366004613eb2565b611dfe565b3480156108ea575f80fd5b506103936108f93660046140a6565b611e15565b348015610909575f80fd5b506103d3610918366004613eb2565b611f2c565b348015610928575f80fd5b50610393610937366004613eb2565b611f44565b348015610947575f80fd5b50610393610956366004614178565b612159565b348015610966575f80fd5b50610393610975366004613eb2565b612216565b348015610985575f80fd5b50610393610994366004613eb2565b61222d565b6103936109a73660046141a2565b612244565b3480156109b7575f80fd5b506103936109c6366004613eb2565b6122f2565b3480156109d6575f80fd5b506103936109e5366004613eb2565b612309565b3480156109f5575f80fd5b506109fe612349565b6040516103df91906141f0565b348015610a16575f80fd5b50610393610a25366004614178565b612369565b348015610a35575f80fd5b50610393610a44366004613eb2565b612374565b348015610a54575f80fd5b50610393610a63366004613eb2565b61238b565b610a7a610a736123a2565b83836113b5565b5050565b610a955f805160206149c1833981519152826123c4565b50565b6001600160a01b0381165f9081525f80516020614958833981519152602052604081205460ff166001816003811115610ad357610ad3613f4e565b1480610af057506002816003811115610aee57610aee613f4e565b145b9392505050565b610a955f8051602061487e833981519152826123c4565b82610b1881610a98565b610b5e5760405162461bcd60e51b81526020600482015260126024820152711513d2d15397d393d517d4d154959250d15160721b60448201526064015b60405180910390fd5b604080515f8082526020820190925290610b7886866123e5565b90505f610b96878787865f805160206149388339815191528761249c565b9050610bb4878787865f80516020614938833981519152868861261e565b610bbd87611f44565b50505050505050565b610bcf336116c0565b610c115760405162461bcd60e51b815260206004820152601360248201527213d3931657d4d150d55492551657d051d15395606a1b6044820152606401610b55565b6001600160a01b0381165f8181525f805160206149588339815191526020526040808220600401805460ff191660011790555133917fe2deca319add01142d26def2de47e64bf1fdc70e6f90c13a1862a48bdaaa7cfd91a350565b610a955f8051602061489e833981519152826123c4565b5f610c8f61060d6123a2565b905090565b610c9c612731565b6001600160a01b0316636170ff1b610cb2612753565b5f80516020614938833981519152610ccb888888612775565b856040518563ffffffff1660e01b8152600401610ceb9493929190614250565b6020604051808303815f875af1158015610d07573d5f803e3d5ffd5b505050506040513d601f19601f82011682018060405250810190610d2b919061427f565b50610d3784843361279e565b604080518481526020810183905283916001600160a01b0387169133917f50485fb0face2cfd73784044ab4191986b4a6713f01854414e2331a6bb41837d91015b60405180910390a450505050565b610d9d5f80516020614770833981519152336127b1565b610de15760405162461bcd60e51b8152602060048201526015602482015274474f5645524e414e43455f41444d494e5f4f4e4c5960581b6044820152606401610b55565b6001600160a01b0381165f8181527f45f38e273862f8834bd2fe7a449988f63de55a7a5b685dea46ccedeb69cf0e266020818152604092839020805460ff191660011790557f45f38e273862f8834bd2fe7a449988f63de55a7a5b685dea46ccedeb69cf0e2780546001600160a01b03191690559151928352917fcfb473e6c03f9a29ddaf990e736fa3de5188a0bd85d684f5b6e164ebfbfff5d291015b60405180910390a15050565b610a95610e966123a2565b82336113b5565b80336001600160a01b03821603610ec65760405162461bcd60e51b8152600401610b5590614296565b610a7a5f8051602061489e833981519152836127e7565b5f8051602061477083398151915282148015610f1757507f0000000000000000000000000000000000000000000000000000000000000000155b15610f645760405162461bcd60e51b815260206004820181905260248201527f43414e4e4f545f52454e4f554e43455f474f5645524e414e43455f41444d494e6044820152606401610b55565b610a7a8282612803565b610a955f80516020614978833981519152826123c4565b33610f8e61287d565b6001600160a01b031614610fd35760405162461bcd60e51b815260206004820152600c60248201526b27a7262cafa6a0a720a3a2a960a11b6044820152606401610b55565b6001600160a01b0381165f9081525f80516020614958833981519152602052604081205460ff16600381111561100b5761100b613f4e565b036110485760405162461bcd60e51b815260206004820152600d60248201526c2aa725a727aba72faa27a5a2a760991b6044820152606401610b55565b6001600160a01b0381165f8181525f805160206149588339815191526020908152604091829020805460ff1916600317905590519182527f86d6e4556eae726303caf49a75add7d92ac713e46db458dab0622aa263fb48e691015b60405180910390a150565b307f00000000000000000000000000000000000000000000000000000000000000006001600160a01b03160361111f5760405162461bcd60e51b81526020600482015260166024820152751112549150d517d0d0531317d11254d0531313d5d15160521b6044820152606401610b55565b5f61112b8160206142da565b90505f6111398260206142f1565b9050808310156111815760405162461bcd60e51b81526020600482015260136024820152721253925517d110551057d513d3d7d4d3505313606a1b6044820152606401610b55565b5f61118e82848688614304565b81019061119b9190613eb2565b9050365f6111ab8582888a614304565b91509150365f6111bd8887818c614304565b90925090506001600160a01b038516156111e7576111dc85838361289f565b505050505050505050565b6111ef6129dd565b1561123e5780156112395760405162461bcd60e51b8152602060048201526014602482015273554e45585045435445445f494e49545f4441544160601b6044820152606401610b55565b6111dc565b61124882826129f7565b6112528282612b63565b6111dc612b91565b6001600160a01b0381165f9081525f80516020614958833981519152602052604081206004015460ff1661128f575f19611298565b61129882612b9c565b92915050565b6001600160a01b0381165f9081525f80516020614958833981519152602052604081206003015480156112d15780610af0565b5f199392505050565b5f610c8f612bbc565b5f6112985f805160206147d7833981519152836127b1565b61130433611f2c565b6113465760405162461bcd60e51b815260206004820152601360248201527227a7262cafa9a2a1aaa924aa2cafa0a226a4a760691b6044820152606401610b55565b6001600160a01b0381165f8181525f805160206149588339815191526020526040808220600401805460ff191690555133917f109dee66091b7a145f557f52c55d7beccb6a29011fc705557e2975749474076b91a350565b610a955f80516020614790833981519152826123c4565b6001600160a01b0381166113ff5760405162461bcd60e51b81526020600482015260116024820152701253959053125117d49150d25412515395607a1b6044820152606401610b55565b6114316040518060400160405280601081526020016f03a37b5b2b71030b2323932b9b9901d160851b81525084612bcf565b61145c60405180604001604052806009815260200168030b6b7bab73a101d160bd1b81525083612c14565b61148a6040518060400160405280600c81526020016b03932b1b4b834b2b73a101d160a51b81525082612bcf565b611495838383612c59565b6001600160a01b0383165f9081525f80516020614958833981519152602052604090206004015460ff16156114ce576114ce8383612f69565b6114d983838361279e565b826001600160a01b0316816001600160a01b03167f2717ead6b9200dd235aad468c9809ea400fe33ac69b5bfaa6d3e90fc922b63988460405161151e91815260200190565b60405180910390a3505050565b5f6112985f805160206147f7833981519152836127b1565b5f6112985f80516020614978833981519152836127b1565b610a955f805160206147f7833981519152826123c4565b803361157c612fd8565b5f83815260209190915260409020546001600160a01b0316146115d25760405162461bcd60e51b815260206004820152600e60248201526d27a7262cafa222a827a9a4aa27a960911b6044820152606401610b55565b6115da612731565b6001600160a01b0316637a98660b6115f0612753565b7f02d757788a8d8d6f21d1cd40bce38a8222d70654214e96ff95d8086e684fbee561161b8888612ffa565b866040518563ffffffff1660e01b815260040161163b9493929190614250565b6020604051808303815f875af1158015611657573d5f803e3d5ffd5b505050506040513d601f19601f8201168201806040525081019061167b919061427f565b506040805185815260208101849052849133917fea57f52faafe318751f75acb6756cff3f66afc10201ef8f2d504e788985db3f591015b60405180910390a350505050565b5f6112985f8051602061487e833981519152836127b1565b80336116e2612fd8565b5f83815260209190915260409020546001600160a01b0316146117385760405162461bcd60e51b815260206004820152600e60248201526d27a7262cafa222a827a9a4aa27a960911b6044820152606401610b55565b611740612731565b6001600160a01b0316636170ff1b611756612753565b7f02d757788a8d8d6f21d1cd40bce38a8222d70654214e96ff95d8086e684fbee56117818888612ffa565b866040518563ffffffff1660e01b81526004016117a19493929190614250565b6020604051808303815f875af11580156117bd573d5f803e3d5ffd5b505050506040513d601f19601f820116820180604052508101906117e1919061427f565b506117f46117ed6123a2565b853361279e565b6040805185815260208101849052849133917fb0b548d5e12b6a60adac4d6dd7610f55134cea4fd145535edc303a48063e0cb491016116b2565b6118366129dd565b6118825760405162461bcd60e51b815260206004820152601860248201527f434f4e54524143545f4e4f545f494e495449414c495a454400000000000000006044820152606401610b55565b61188b816130a0565b6118d15760405162461bcd60e51b81526020600482015260176024820152764c325f414444524553535f4f55545f4f465f52414e474560481b6044820152606401610b55565b6118da816130c2565b6040518181527f90fc3f39f8e4669d1bf5f9038707949f8af42a973f62988143be0fa7c3997f18906020016110a3565b80336001600160a01b038216036119335760405162461bcd60e51b8152600401610b5590614296565b610a7a5f80516020614790833981519152836127e7565b5f6112985f8051602061489e833981519152836127b1565b610a955f80516020614770833981519152826123c4565b5f6112985f805160206149c1833981519152836127b1565b611999612731565b6001600160a01b0316637a98660b6119af612753565b5f805160206149388339815191526119c8888888612775565b856040518563ffffffff1660e01b81526004016119e89493929190614250565b6020604051808303815f875af1158015611a04573d5f803e3d5ffd5b505050506040513d601f19601f82011682018060405250810190611a28919061427f565b50604080518481526020810183905283916001600160a01b0387169133917f8f3da3ce93acd45e015b069c8f032d37be93dc9efcaaeda368aa9ca74f64c30a9101610d78565b60405162461bcd60e51b815260206004820152600b60248201526a155394d5541413d495115160aa1b6044820152606401610b55565b5f610c8f6130e4565b611ab5612731565b6001600160a01b0316636170ff1b611acb612753565b5f8051602061485e833981519152611b198a8a8a60018b8b808060200260200160405190810160405280939291908181526020018383602002808284375f920191909152506130f692505050565b856040518563ffffffff1660e01b8152600401611b399493929190614250565b6020604051808303815f875af1158015611b55573d5f803e3d5ffd5b505050506040513d601f19601f82011682018060405250810190611b79919061427f565b50611b8586863361279e565b83866001600160a01b0316336001600160a01b03167fa465a02eedf06ceffd1d99159ad98c5d8fa7f17b870eb22e0bfcec06398a8f7388878787604051611bcf949392919061432b565b60405180910390a4505050505050565b84611be981610a98565b611c2a5760405162461bcd60e51b81526020600482015260126024820152711513d2d15397d393d517d4d154959250d15160721b6044820152606401610b55565b5f611c3587876123e5565b90505f611c878888888888808060200260200160405190810160405280939291908181526020018383602002808284375f920191909152505f8051602061485e833981519152925089915061249c9050565b9050611cd98888888888808060200260200160405190810160405280939291908181526020018383602002808284375f920191909152505f8051602061485e833981519152925088915089905061261e565b611ce288611f44565b5050505050505050565b611d035f80516020614770833981519152336127b1565b611d475760405162461bcd60e51b8152602060048201526015602482015274474f5645524e414e43455f41444d494e5f4f4e4c5960581b6044820152606401610b55565b6001600160a01b0381165f8181527f45f38e273862f8834bd2fe7a449988f63de55a7a5b685dea46ccedeb69cf0e266020818152604092839020805460ff191690557f45f38e273862f8834bd2fe7a449988f63de55a7a5b685dea46ccedeb69cf0e2780546001600160a01b03191690559151928352917fd75f94825e770b8b512be8e74759e252ad00e102e38f50cce2f7c6f868a295999101610e7f565b5f6112985f80516020614770833981519152836127b1565b610a955f805160206147d7833981519152826123c4565b611e1d612731565b6001600160a01b0316637a98660b611e33612753565b5f8051602061485e833981519152611e818a8a8a60018b8b808060200260200160405190810160405280939291908181526020018383602002808284375f920191909152506130f692505050565b856040518563ffffffff1660e01b8152600401611ea19493929190614250565b6020604051808303815f875af1158015611ebd573d5f803e3d5ffd5b505050506040513d601f19601f82011682018060405250810190611ee1919061427f565b5083866001600160a01b0316336001600160a01b03167f889e470f207032611b2f68dbd2124e3139794f19a6b536c83892fd505760386088878787604051611bcf949392919061432b565b5f6112985f80516020614790833981519152836127b1565b6001600160a01b0381165f9081525f805160206149588339815191526020526040902054819060019060ff166003811115611f8157611f81613f4e565b14611f8a575050565b6001600160a01b0382165f9081525f80516020614958833981519152602052604090206001810154611fba612731565b6001600160a01b03166377c7d7a9826040518263ffffffff1660e01b8152600401611fe791815260200190565b602060405180830381865afa158015612002573d5f803e3d5ffd5b505050506040513d601f19601f82011682018060405250810190612026919061427f565b5f0361203c57815460ff19166002178255612153565b8160020154421115612153576001600160a01b0384165f9081525f8051602061495883398151915260205260408120805460ff19908116825560018201839055600282018390556003820183905560049091018054909116905561209e61287d565b6001600160a01b0316635ab1bd536040518163ffffffff1660e01b8152600401602060405180830381865afa1580156120d9573d5f803e3d5ffd5b505050506040513d601f19601f820116820180604052508101906120fd919061436f565b604051630caca05160e31b81526001600160a01b038781166004830152919250908216906365650288906024015f604051808303815f87803b158015612141575f80fd5b505af11580156111dc573d5f803e3d5ffd5b50505050565b805f036121a85760405162461bcd60e51b815260206004820152601960248201527f494e56414c49445f4d41585f544f54414c5f42414c414e4345000000000000006044820152606401610b55565b816001600160a01b03167fb895637c7d86c9b7b5b747e72195206a3fc21d8df0e019edd2312454ffa733b1826040516121e391815260200190565b60405180910390a26001600160a01b03919091165f9081525f805160206149588339815191526020526040902060030155565b610a955f8051602061487e833981519152826127e7565b610a955f805160206147d7833981519152826127e7565b604080515f808252602082019092529061225c6123a2565b90505f61226982866123e5565b90505f612287838787875f805160206149388339815191528761249c565b90506122a5838787875f80516020614938833981519152868861261e565b6040805187815260208101839052908101839052859033907f5b5dbc6c64043a15d3fe6943a6e443a826b78755edc257b2ec890c022225dbcf9060600160405180910390a3505050505050565b610a955f805160206147f7833981519152826127e7565b80336001600160a01b038216036123325760405162461bcd60e51b8152600401610b5590614296565b610a7a5f80516020614770833981519152836127e7565b60606040518060600160405280602181526020016149e160219139905090565b610a7a8282336113b5565b610a955f805160206149c1833981519152826127e7565b610a955f80516020614978833981519152826127e7565b5f610c8f60405180606001604052806029815260200161499860299139613337565b6123cd8261336a565b6123d68161338a565b6123e08383613394565b505050565b5f8134101561242b5760405162461bcd60e51b8152602060048201526012602482015271494e53554646494349454e545f56414c554560701b6044820152606401610b55565b5f612436833461438a565b905061244181613408565b61244d6245544861129e565b612457824761438a565b1115610af05760405162461bcd60e51b815260206004820152601460248201527313505617d09053105390d157d15610d15151115160621b6044820152606401610b55565b5f6124a5612753565b5f036124e75760405162461bcd60e51b8152602060048201526011602482015270130c97d094925111d157d393d517d4d155607a1b6044820152606401610b55565b5f86116125255760405162461bcd60e51b815260206004820152600c60248201526b16915493d7d1115413d4d25560a21b6044820152606401610b55565b61252e856130a0565b6125745760405162461bcd60e51b81526020600482015260176024820152764c325f414444524553535f4f55545f4f465f52414e474560481b6044820152606401610b55565b5f8051602061485e83398151915283145f61258d612731565b6001600160a01b0316633e3aa6c5856125a4612753565b886125b28e8e8e8a8f6130f6565b6040518563ffffffff1660e01b81526004016125d09392919061439d565b604080518083038185885af11580156125eb573d5f803e3d5ffd5b50505050506040513d601f19601f8201168201806040525081019061261091906143bb565b9a9950505050505050505050565b5f80516020614938833981519152830361268757604080518781526020810184905290810182905285906001600160a01b0389169033907f5f971bd00bf3ffbca8a6d72cdd4fd92cfd4f62636161921d1e5a64f0b64ccb6d9060600160405180910390a4610bbd565b5f8051602061485e83398151915283146126d65760405162461bcd60e51b815260206004820152601060248201526f2aa725a727aba72fa9a2a622a1aa27a960811b6044820152606401610b55565b84876001600160a01b0316336001600160a01b03167f2203a49c69f1a46c1164f5e4a30643dd77b7c59c0ff9bc433256048365c247f18988878760405161272094939291906143dd565b60405180910390a450505050505050565b5f610c8f60405180606001604052806028815260200161474860289139613337565b5f610c8f60405180606001604052806027815260200161483760279139613337565b604080515f80825260208201909252606091506127958585855f856130f6565b95945050505050565b6123e06001600160a01b038216836134bd565b5f9182525f80516020614817833981519152602090815260408084206001600160a01b0393909316845291905290205460ff1690565b6127f08261336a565b6127f98161338a565b6123e0838361355d565b6001600160a01b03811633146128735760405162461bcd60e51b815260206004820152602f60248201527f416363657373436f6e74726f6c3a2063616e206f6e6c792072656e6f756e636560448201526e103937b632b9903337b91039b2b63360891b6064820152608401610b55565b610a7a828261355d565b5f610c8f6040518060600160405280602681526020016148be60269139613337565b6001600160a01b0383163b6128eb5760405162461bcd60e51b8152602060048201526012602482015271115250d7d393d517d057d0d3d395149050d560721b6044820152606401610b55565b5f80846001600160a01b031663439fab9160e01b8585604051602401612912929190614408565b60408051601f198184030181529181526020820180516001600160e01b03166001600160e01b0319909416939093179092529051612950919061444d565b5f60405180830381855af49150503d805f8114612988576040519150601f19603f3d011682016040523d82523d5f602084013e61298d565b606091505b50915091508181906129b25760405162461bcd60e51b8152600401610b5591906141f0565b5080518190156129d55760405162461bcd60e51b8152600401610b5591906141f0565b505050505050565b5f806129e7612731565b6001600160a01b03161415905090565b612a356040518060400160405280601881526020017f3e3e3e3e3e3e3e2076616c6964617465496e69744461746100000000000000008152506135cf565b612a7382828080601f0160208091040260200160405190810160405280939291908181526020018383808284375f9201919091525061361292505050565b60408051808201909152600f81526e0313cba32b9903632b733ba34101d1608d1b6020820152612aa39082612c14565b60408114612ae75760405162461bcd60e51b8152602060048201526011602482015270494c4c4547414c5f444154415f53495a4560781b6044820152606401610b55565b5f80612af583850185614458565b91509150612b0c816001600160a01b03163b151590565b6121535760405162461bcd60e51b815260206004820152602260248201527f494e56414c49445f4d4553534147494e475f434f4e54524143545f4144445245604482015261535360f01b6064820152608401610b55565b5f80612b7183850185614458565b91509150612b7e81613655565b612b8782613677565b6121536005613699565b33610a9581806136bb565b5f612ba6826137bd565b612bb357611298826137e8565b61129882613897565b5f610c8f64012a05f200620186a06142da565b610a7a8282604051602401612be5929190614484565b60408051601f198184030181529190526020810180516001600160e01b031663319af33360e01b1790526138c4565b610a7a8282604051602401612c2a9291906144ad565b60408051601f198184030181529190526020810180516001600160e01b03166309710a9d60e41b1790526138c4565b612c61612753565b5f03612ca35760405162461bcd60e51b8152602060048201526011602482015270130c97d094925111d157d393d517d4d155607a1b6044820152606401610b55565b6001600160a01b0381165f6001612cbc608060026145b1565b612cc6919061438a565b60408051600580825260c082019092529186169250608086901c915f916020820160a0803683370190505090505f815f81518110612d0657612d066145bc565b6020026020010181815250508381600181518110612d2657612d266145bc565b602002602001018181525050866001600160a01b031681600281518110612d4f57612d4f6145bc565b6020026020010181815250508281600381518110612d6f57612d6f6145bc565b6020026020010181815250508181600481518110612d8f57612d8f6145bc565b602002602001018181525050612da3612731565b6001600160a01b0316632c9dd5c0612db9612753565b836040518363ffffffff1660e01b8152600401612dd79291906145d0565b6020604051808303815f875af1925050508015612e11575060408051601f3d908101601f19168201909252612e0e9181019061427f565b60015b611ce257612e1d6145e8565b806308c379a003612f5f5750612e3161463a565b80612e3c5750612f61565b60408051600480825260a0820190925290602082016080803683370190505091505f825f81518110612e7057612e706145bc565b6020026020010181815250508482600181518110612e9057612e906145bc565b6020026020010181815250508382600281518110612eb057612eb06145bc565b6020026020010181815250508282600381518110612ed057612ed06145bc565b602002602001018181525050612ee4612731565b6001600160a01b0316632c9dd5c0612efa612753565b846040518363ffffffff1660e01b8152600401612f189291906145d0565b6020604051808303815f875af1158015612f34573d5f803e3d5ffd5b505050506040513d601f19601f82011682018060405250810190612f58919061427f565b5050610bbd565b505b3d5f803e3d5ffd5b5f612f7383612b9c565b905081811015612fc55760405162461bcd60e51b815260206004820152601d60248201527f455843454544535f474c4f42414c5f57495448445241575f4c494d49540000006044820152606401610b55565b6123e083612fd3848461438a565b6138cd565b5f610c8f60405180606001604052806029815260200161490f602991396138fe565b604080516003808252608082019092526060915f919060208201848036833701905050905082815f81518110613032576130326145bc565b6020908102919091010152600161304b608060026145b1565b613055919061438a565b84168160018151811061306a5761306a6145bc565b602002602001018181525050608084901c8160028151811061308e5761308e6145bc565b60209081029190910101529392505050565b5f8115801590611298575061129882600167080000000000001160c01b011190565b610a956040518060600160405280602781526020016148376027913982613930565b5f610c8f64012a05f200614e206142da565b60605f83613105576005613111565b613111600160056142f1565b90505f83518261312191906142f1565b67ffffffffffffffff81111561313957613139614202565b604051908082528060200260200182016040528015613162578160200160208202803683370190505b509050876001600160a01b0316815f81518110613181576131816145bc565b602002602001018181525050336001600160a01b0316816001815181106131aa576131aa6145bc565b60200260200101818152505085816002815181106131ca576131ca6145bc565b602090810291909101015260016131e3608060026145b1565b6131ed919061438a565b871681600381518110613202576132026145bc565b602002602001018181525050608087901c81600481518110613226576132266145bc565b602002602001018181525050841561332c5783518161324660018561438a565b81518110613256576132566145bc565b6020026020010181815250505f5b845181101561332a5761329d858281518110613282576132826145bc565b6020026020010151600167080000000000001160c01b011190565b6132e05760405162461bcd60e51b8152602060048201526014602482015273494e56414c49445f4d4553534147455f4441544160601b6044820152606401610b55565b8481815181106132f2576132f26145bc565b602002602001015182848361330791906142f1565b81518110613317576133176145bc565b6020908102919091010152600101613264565b505b979650505050505050565b5f808260405160200161334a919061444d565b60408051601f198184030181529190528051602090910120549392505050565b5f9081525f80516020614817833981519152602052604090206001015490565b610a95813361397e565b61339e82826127b1565b610a7a575f8281525f80516020614817833981519152602090815260408083206001600160a01b0385168085529252808320805460ff1916600117905551339285917f2f8788117e7eff1d82e926ec794901d17c78024a50270940304540a733656f0d9190a45050565b7f00000000000000000000000000000000000000000000000000000000000000008110156134715760405162461bcd60e51b8152602060048201526016602482015275494e53554646494349454e545f4645455f56414c554560501b6044820152606401610b55565b662386f26fc10000811115610a955760405162461bcd60e51b815260206004820152601260248201527108c8a8abeac8298aa8abea89e9ebe90928e960731b6044820152606401610b55565b805f036134c8575050565b5f826001600160a01b0316826040515f6040518083038185875af1925050503d805f8114613511576040519150601f19603f3d011682016040523d82523d5f602084013e613516565b606091505b50509050806123e05760405162461bcd60e51b815260206004820152601360248201527211551217d514905394d1915497d19052531151606a1b6044820152606401610b55565b61356782826127b1565b15610a7a575f8281525f80516020614817833981519152602090815260408083206001600160a01b0385168085529252808320805460ff1916905551339285917ff6391f5c32d9c69d2a47ea670b442974b53935d1edc7fd64eb21e047a839171b9190a45050565b610a95816040516024016135e391906141f0565b60408051601f198184030181529190526020810180516001600160e01b031663104c13eb60e21b1790526138c4565b610a958160405160240161362691906141f0565b60408051601f198184030181529190526020810180516001600160e01b03166305f3bfab60e11b1790526138c4565b610a9560405180606001604052806028815260200161474860289139826139e2565b610a956040518060600160405280602681526020016148be60269139826139e2565b610a956040518060600160405280602b81526020016148e4602b913982613a30565b6136c3613a62565b15613730576136df5f80516020614770833981519152836127b1565b61372b5760405162461bcd60e51b815260206004820152601960248201527f524f4c45535f414c52454144595f494e495449414c495a4544000000000000006044820152606401610b55565b613739565b61373982613a81565b613741613b63565b156137b45761375d5f80516020614790833981519152826127b1565b610a7a5760405162461bcd60e51b815260206004820152602260248201527f53454355524954595f524f4c45535f414c52454144595f494e495449414c495a604482015261115160f21b6064820152608401610b55565b610a7a81613b7b565b5f6137c6613bcd565b5f6137d084613bef565b81526020019081526020015f20545f14159050919050565b5f8062455447196001600160a01b0384160161380557504761386e565b6040516370a0823160e01b81523060048201526001600160a01b038416906370a0823190602401602060405180830381865afa158015613847573d5f803e3d5ffd5b505050506040513d601f19601f8201168201806040525081019061386b919061427f565b90505b5f613877613c3b565b9050606461388582846142da565b61388f91906146be565b949350505050565b5f60016138a2613bcd565b5f6138ac85613bef565b81526020019081526020015f2054611298919061438a565b610a9581613c5d565b6138d86001826142f1565b6138e0613bcd565b5f6138ea85613bef565b815260208101919091526040015f20555050565b5f8082604051602001613911919061444d565b60408051601f1981840301815291905280516020909101209392505050565b61393982613337565b156139745760405162461bcd60e51b815260206004820152600b60248201526a1053149150511657d4d15560aa1b6044820152606401610b55565b610a7a8282613a30565b61398882826127b1565b610a7a576139a0816001600160a01b03166014613c7d565b6139ab836020613c7d565b6040516020016139bc9291906146dd565b60408051601f198184030181529082905262461bcd60e51b8252610b55916004016141f0565b5f6139ec83613337565b6001600160a01b0316146139745760405162461bcd60e51b815260206004820152600b60248201526a1053149150511657d4d15560aa1b6044820152606401610b55565b5f82604051602001613a42919061444d565b604051602081830303815290604052805190602001209050818155505050565b5f80613a7a5f8051602061477083398151915261336a565b1415905090565b613a985f8051602061477083398151915282613394565b613abc5f805160206147d78339815191525f8051602061489e833981519152613e13565b613ae05f8051602061489e8339815191525f80516020614770833981519152613e13565b613af75f8051602061477083398151915280613e13565b613b1b5f805160206149788339815191525f8051602061489e833981519152613e13565b613b3f5f805160206149c18339815191525f8051602061489e833981519152613e13565b610a955f805160206147f78339815191525f80516020614770833981519152613e13565b5f80613a7a5f8051602061479083398151915261336a565b613b925f8051602061479083398151915280613e13565b613bb65f8051602061487e8339815191525f80516020614790833981519152613e13565b610a955f8051602061479083398151915282613394565b5f610c8f6040518060600160405280602781526020016147b0602791396138fe565b5f80613bfe62015180426146be565b604080516001600160a01b038616602082015290810182905290915060600160405160208183030381529060405280519060200120915050919050565b5f610c8f6040518060600160405280602b81526020016148e4602b9139613337565b80516a636f6e736f6c652e6c6f67602083015f808483855afa5050505050565b60605f613c8b8360026142da565b613c969060026142f1565b67ffffffffffffffff811115613cae57613cae614202565b6040519080825280601f01601f191660200182016040528015613cd8576020820181803683370190505b509050600360fc1b815f81518110613cf257613cf26145bc565b60200101906001600160f81b03191690815f1a905350600f60fb1b81600181518110613d2057613d206145bc565b60200101906001600160f81b03191690815f1a9053505f613d428460026142da565b613d4d9060016142f1565b90505b6001811115613dc4576f181899199a1a9b1b9c1cb0b131b232b360811b85600f1660108110613d8157613d816145bc565b1a60f81b828281518110613d9757613d976145bc565b60200101906001600160f81b03191690815f1a90535060049490941c93613dbd81614732565b9050613d50565b508315610af05760405162461bcd60e51b815260206004820181905260248201527f537472696e67733a20686578206c656e67746820696e73756666696369656e746044820152606401610b55565b5f613e1d8361336a565b5f8481525f805160206148178339815191526020526040808220600101859055519192508391839186917fbd79b86ffe0ab8e8776151514217cd7cacd52c909f66475c3af44e129f0b00ff9190a4505050565b6001600160a01b0381168114610a95575f80fd5b5f8060408385031215613e95575f80fd5b823591506020830135613ea781613e70565b809150509250929050565b5f60208284031215613ec2575f80fd5b8135610af081613e70565b5f805f60608486031215613edf575f80fd5b8335613eea81613e70565b95602085013595506040909401359392505050565b5f805f8060808587031215613f12575f80fd5b8435613f1d81613e70565b966020860135965060408601359560600135945092505050565b5f60208284031215613f47575f80fd5b5035919050565b634e487b7160e01b5f52602160045260245ffd5b6020810160048310613f8257634e487b7160e01b5f52602160045260245ffd5b91905290565b5f8060208385031215613f99575f80fd5b823567ffffffffffffffff811115613faf575f80fd5b8301601f81018513613fbf575f80fd5b803567ffffffffffffffff811115613fd5575f80fd5b856020828401011115613fe6575f80fd5b6020919091019590945092505050565b5f805f60608486031215614008575f80fd5b833561401381613e70565b925060208401359150604084013561402a81613e70565b809150509250925092565b5f805f60608486031215614047575f80fd5b505081359360208301359350604090920135919050565b5f8083601f84011261406e575f80fd5b50813567ffffffffffffffff811115614085575f80fd5b6020830191508360208260051b850101111561409f575f80fd5b9250929050565b5f805f805f8060a087890312156140bb575f80fd5b86356140c681613e70565b95506020870135945060408701359350606087013567ffffffffffffffff8111156140ef575f80fd5b6140fb89828a0161405e565b979a9699509497949695608090950135949350505050565b5f805f805f60808688031215614127575f80fd5b853561413281613e70565b94506020860135935060408601359250606086013567ffffffffffffffff81111561415b575f80fd5b6141678882890161405e565b969995985093965092949392505050565b5f8060408385031215614189575f80fd5b823561419481613e70565b946020939093013593505050565b5f80604083850312156141b3575f80fd5b50508035926020909101359150565b5f81518084528060208401602086015e5f602082860101526020601f19601f83011685010191505092915050565b602081525f610af060208301846141c2565b634e487b7160e01b5f52604160045260245ffd5b5f8151808452602084019350602083015f5b82811015614246578151865260209586019590910190600101614228565b5093949350505050565b848152836020820152608060408201525f61426e6080830185614216565b905082606083015295945050505050565b5f6020828403121561428f575f80fd5b5051919050565b60208082526016908201527521a0a72727aa2fa822a92327a926afa7a72fa9a2a62360511b604082015260600190565b634e487b7160e01b5f52601160045260245ffd5b8082028115828204841417611298576112986142c6565b80820180821115611298576112986142c6565b5f8085851115614312575f80fd5b8386111561431e575f80fd5b5050820193919092039150565b84815260606020820181905281018390525f6001600160fb1b03841115614350575f80fd5b8360051b80866080850137604083019390935250016080019392505050565b5f6020828403121561437f575f80fd5b8151610af081613e70565b81810381811115611298576112986142c6565b838152826020820152606060408201525f6127956060830184614216565b5f80604083850312156143cc575f80fd5b505080516020909101519092909150565b848152608060208201525f6143f56080830186614216565b6040830194909452506060015292915050565b60208152816020820152818360408301375f818301604090810191909152601f909201601f19160101919050565b5f81518060208401855e5f93019283525090919050565b5f610af08284614436565b5f8060408385031215614469575f80fd5b823561447481613e70565b91506020830135613ea781613e70565b604081525f61449660408301856141c2565b905060018060a01b03831660208301529392505050565b604081525f6144bf60408301856141c2565b90508260208301529392505050565b6001815b6001841115614509578085048111156144ed576144ed6142c6565b60018416156144fb57908102905b60019390931c9280026144d2565b935093915050565b5f8261451f57506001611298565b8161452b57505f611298565b8160018114614541576002811461454b57614567565b6001915050611298565b60ff84111561455c5761455c6142c6565b50506001821b611298565b5060208310610133831016604e8410600b841016171561458a575081810a611298565b6145965f1984846144ce565b805f19048211156145a9576145a96142c6565b029392505050565b5f610af08383614511565b634e487b7160e01b5f52603260045260245ffd5b828152604060208201525f61388f6040830184614216565b5f60033d11156145fe5760045f803e505f5160e01c5b90565b601f8201601f1916810167ffffffffffffffff8111828210171561463357634e487b7160e01b5f52604160045260245ffd5b6040525050565b5f60443d10156146475790565b6040513d600319016004823e80513d602482011167ffffffffffffffff8211171561467157505090565b808201805167ffffffffffffffff81111561468d575050505090565b3d84016003190182820160200111156146a7575050505090565b6146b660208285010185614601565b509392505050565b5f826146d857634e487b7160e01b5f52601260045260245ffd5b500490565b7f416363657373436f6e74726f6c3a206163636f756e742000000000000000000081525f61470e6017830185614436565b7001034b99036b4b9b9b4b733903937b6329607d1b81526127956011820185614436565b5f81614740576147406142c6565b505f19019056fe535441524b4e45545f544f4b454e5f4252494447455f4d4553534147494e475f434f4e545241435403711c9d994faf6055172091cb841fd4831aa743e6f3315163b06a122c841846026bd110619d11cfdfc28e281df893bc24828e89177318e9dbd860cdaedeb6b357495448445241574c5f4c494d49545f494e5452414441595f51554f54415f534c4f545f54414700d2ead78c620e94b02d0a996e99298c59ddccfa1d8a0149080ac3a20de060680251e864ca2a080f55bce5da2452e8cfcafdbc951a3e7fff5023d558452ec22853e43b954ba190a7e49386f1f78b01dcd9f628db23f432fa029a7dfd6d98e8fb535441524b4e45545f544f4b454e5f4252494447455f4c325f544f4b454e5f434f4e5452414354008bce41827dd5484d80312a2e43bc42a896e3fcf75bf84c2b49339168dfa00a037693ba312785932d430dccf0f56ffedd0aa7c0f8b6da2cc4530c2717689b9603e615638e0b79444a70f8c695bf8f2a47033bf1cf95691ec3130f64939cee99535441524b4e45545f544f4b454e5f4252494447455f4d414e414745525f534c4f545f54414757495448445241574c5f4c494d49545f57495448445241575f4c494d49545f5043545f534c4f545f544147535441524b4e45545f544f4b454e5f4252494447455f4445504f5349544f525f41444452455353455301b64b1b3b690b43b9b514fb81377518f4039cd3e4f4914d8a6bdf01d679fb19c59c20aaa96597268f595db30ec21108a505370e3266ed3a6515637f16b8b689023edb77f7c8cc9e38e8afe78954f703aeeda7fffe014eeb6e56ea84e62f6da7535441524b4e45545f45524332305f544f4b454e5f4252494447455f544f4b454e5f414444524553530128d63adbf6b09002c26caf55c47e2f26635807e3ef1b027218aa74c8d61a3e537461726b576172655f537461726b6e65744574684272696467655f322e305f34a2646970667358221220840e0bf38c21d824b58d2d6577cb17d0b8ce26f76437883ce6341ee6060d05c364736f6c634300081a003303711c9d994faf6055172091cb841fd4831aa743e6f3315163b06a122c841846026bd110619d11cfdfc28e281df893bc24828e89177318e9dbd860cdaedeb6b353e43b954ba190a7e49386f1f78b01dcd9f628db23f432fa029a7dfd6d98e8fb03e615638e0b79444a70f8c695bf8f2a47033bf1cf95691ec3130f64939cee99",
    "linkReferences": {}
  },
  "methodIdentifiers": {
    "assignLegacyProxyGovernor(address)": "284b920e",
    "checkDeploymentStatus(address)": "d12fc182",
    "deactivate(address)": "3ea053eb",
    "deposit(address,uint256,uint256)": "0efe6a8b",
    "deposit(uint256,uint256)": "e2bbb158",
    "depositCancelRequest(address,uint256,uint256,uint256)": "a6d1d6c6",
    "depositReclaim(address,uint256,uint256,uint256)": "23205c52",
    "depositWithMessage(address,uint256,uint256,uint256[])": "be58b18e",
    "depositWithMessageCancelRequest(address,uint256,uint256,uint256[],uint256)": "cf50fd1c",
    "depositWithMessageReclaim(address,uint256,uint256,uint256[],uint256)": "b5cd0c3c",
    "disableWithdrawalLimit(address)": "5a72af89",
    "enableWithdrawalLimit(address)": "14af98b3",
    "enrollToken(address)": "ad8b92b4",
    "estimateDepositFeeWei()": "af8bc15e",
    "estimateEnrollmentFeeWei()": "4d8b92a5",
    "getMaxTotalBalance(address)": "4baf43da",
    "getRemainingIntradayAllowance(address)": "496ae54c",
    "getStatus(address)": "30ccebb5",
    "identify()": "eeb72866",
    "initialize(bytes)": "439fab91",
    "isAppGovernor(address)": "5a5d1bb9",
    "isAppRoleAdmin(address)": "8e5224ff",
    "isFrozen()": "33eeb147",
    "isGovernanceAdmin(address)": "cb1cccce",
    "isOperator(address)": "6d70f7ae",
    "isSecurityAdmin(address)": "d08fb6cb",
    "isSecurityAgent(address)": "757bd9ab",
    "isServicingToken(address)": "0c6f8664",
    "isTokenAdmin(address)": "a2bdde3d",
    "isUpgradeGovernor(address)": "6c04d9d5",
    "legacyDepositCancelRequest(uint256,uint256,uint256)": "6ffed68b",
    "legacyDepositReclaim(uint256,uint256,uint256)": "7d22dbc7",
    "maxDeposit()": "6083e59a",
    "maxTotalBalance()": "19534075",
    "registerAppGovernor(address)": "cdd1f70d",
    "registerAppRoleAdmin(address)": "17896383",
    "registerGovernanceAdmin(address)": "9463629a",
    "registerOperator(address)": "3682a450",
    "registerSecurityAdmin(address)": "62a14376",
    "registerSecurityAgent(address)": "0e770f23",
    "registerTokenAdmin(address)": "0b3a2d21",
    "registerUpgradeGovernor(address)": "6fc97cbf",
    "removeLegacyProxyGovernor(address)": "c1f5eb3a",
    "renounceRole(bytes32,address)": "36568abe",
    "revokeAppGovernor(address)": "deec9c5a",
    "revokeAppRoleAdmin(address)": "2f951985",
    "revokeGovernanceAdmin(address)": "ee0e6807",
    "revokeOperator(address)": "fad8b32a",
    "revokeSecurityAdmin(address)": "8101b64c",
    "revokeSecurityAgent(address)": "d9fa7091",
    "revokeTokenAdmin(address)": "fa0f73ba",
    "revokeUpgradeGovernor(address)": "ed9ef16a",
    "setL2TokenBridge(uint256)": "7fc2ab3e",
    "setMaxTotalBalance(address,uint256)": "d2b51eea",
    "withdraw(address,uint256)": "f3fef3a3",
    "withdraw(address,uint256,address)": "69328dec",
    "withdraw(uint256)": "2e1a7d4d",
    "withdraw(uint256,address)": "00f714ce"
  },
  "id": 9
}